:020000040800F2
:1000000000000120551A0008251200082B120008D4
:1000100031120008371200083D12000800000000ED
:100020000000000000000000000000004312000873
:1000300051120008000000005F1200086D12000855
:10004000A51A0008A51A0008A51A0008A51A000894
:10005000A51A0008A51A000879120008A51A0008B8
:1000600015130008A51A0008A51A0008A51A00080B
:10007000A51A0008A51A0008A51A0008A51A000864
:10008000A51A0008A51A0008A51A0008000000001B
:10009000000000000000000000000000A51A000899
:1000A000A51A0008A51A0008A51A0008A51A000834
:1000B000A51A0008A51A0008B1130008A51A00081F
:1000C000A51A0008A51A0008A51A0008A51A000814
:1000D000A51A0008A51A0008A51A000800000000CB
:1000E000A51A0008A51A0008A51A000800000000BB
:1000F000000000000000000000000000A51A000839
:1001000000000000A51A0008A51A0008A51A00089A
:1001100000000000000000000000000000000000DF
:10012000A51A0008A51A0008A51A0008A51A0008B3
:10013000A51A0008000000000000000000000000F8
:100140000000000000000000000000004D19000841
:10015000A51A0008A51A0008A51A0008A51A000883
:10016000A51A0008A51A0008000000000000000001
:10017000000000000000000000000000000000007F
:1001800000000000A51A00080000000000000000A8
:04019000A51A0008A4
:1001980010B5054C237833B9044B13B10448AFF3B9
:1001A80000800123237010BD2801002000000000FA
:1001B8003892000808B5034B1BB103490348AFF355
:1001C800008008BD000000002C01002038920008C3
:1001D80010F8012B11F8013B012A28BF9A42F7D0E9
:1001E800D01A704770B54FF0FF0C4CF4E06C1CEA65
:1001F80011541DBF1CEA135594EA0C0F95EA0C0F15
:1002080000F0DEF82C4481EA030621EA4C5123EA87
:100218004C5350EA013518BF52EA033541F48011B6
:1002280043F4801338D0A0FB02CE4FF00005E1FB69
:1002380002E506F00042E0FB03E54FF00006E1FBB3
:1002480003569CF0000F18BF4EF0010EA4F1FF04F6
:10025800B6F5007F64F5407404D25FEA4E0E6D4136
:1002680046EB060642EAC62141EA55514FEAC52047
:1002780040EA5E504FEACE2EB4F1FD0C88BFBCF5C3
:10028800E06F1ED8BEF1004F08BF5FEA500E50F174
:10029800000041EB045170BD06F0004646EA01013A
:1002A80040EA020081EA0301B4EB5C04C2BFD4EB6C
:1002B8000C0541EA045170BD41F480114FF0000E65
:1002C800013C00F3AB8014F1360FDEBF002001F0D3
:1002D800004170BDC4F10004203C35DA0C341BDC4D
:1002E80004F11404C4F1200500FA05F320FA04F01F
:1002F80001FA05F240EA020001F0004221F0004153
:1003080010EBD37021FA04F642EB06015EEA430EC5
:1003180008BF20EAD37070BDC4F10C04C4F12005F5
:1003280000FA04F320FA05F001FA04F240EA0200A8
:1003380001F0004110EBD37041F100015EEA430E79
:1003480008BF20EAD37070BDC4F1200500FA05F299
:100358004EEA020E20FA04F301FA05F243EA020318
:1003680021FA04F001F0004121FA04F220EA020027
:1003780000EBD3705EEA430E08BF20EAD37070BD6D
:1003880094F0000F0FD101F00046400041EB01014D
:1003980011F4801F08BF013CF7D041EA060195F02F
:1003A800000F18BF704703F00046520043EB0303E9
:1003B80013F4801F08BF013DF7D043EA06037047D6
:1003C80094EA0C0F0CEA135518BF95EA0C0F0CD0E1
:1003D80050EA410618BF52EA4306D1D181EA030127
:1003E80001F000414FF0000070BD50EA410606BF21
:1003F8001046194652EA430619D094EA0C0F02D166
:1004080050EA013613D195EA0C0F05D152EA0336AA
:100418001CBF104619460AD181EA030101F00041C8
:1004280041F0FE4141F470014FF0000070BD41F011
:10043800FE4141F4780170BD81F0004102E000BF47
:1004480083F0004330B54FEA41044FEA430594EA8C
:10045800050F08BF90EA020F1FBF54EA000C55EAC7
:10046800020C7FEA645C7FEA655C00F0E2804FEA98
:100478005454D4EB5555B8BF6D420CDD2C4480EA7A
:10048800020281EA030382EA000083EA010180EAAA
:10049800020281EA0303362D88BF30BD11F0004FF8
:1004A8004FEA01314FF4801C4CEA113102D040422E
:1004B80061EB410113F0004F4FEA03334CEA133369
:1004C80002D0524263EB430394EA050F00F0A78081
:1004D800A4F10104D5F1200E0DDB02FA0EFC22FA7C
:1004E80005F2801841F1000103FA0EF2801843FA70
:1004F80005F359410EE0A5F120050EF1200E012A61
:1005080003FA0EFC28BF4CF0020C43FA05F3C0189E
:1005180051EBE37101F0004507D54FF0000EDCF117
:10052800000C7EEB00006EEB0101B1F5801F1BD3C0
:10053800B1F5001F0CD349085FEA30004FEA3C0CC4
:1005480004F101044FEA445212F5800F80F09A80BA
:10055800BCF1004F08BF5FEA500C50F1000041EBBE
:10056800045141EA050130BD5FEA4C0C404141EBC2
:100578000101013C28BFB1F5801FE9D291F0000FBD
:1005880004BF01460020B1FA81F308BF2033A3F16C
:100598000B03B3F120020CDA0C3208DD02F1140C63
:1005A800C2F10C0201FA0CF021FA02F10CE002F19E
:1005B8001402D8BFC2F1200C01FA02F120FA0CFC97
:1005C800DCBF41EA0C019040E41AA2BF01EB0451E0
:1005D800294330BD6FEA04041F3C1CDA0C340EDCDE
:1005E80004F11404C4F1200220FA04F001FA02F321
:1005F80040EA030021FA04F345EA030130BDC4F1DF
:100608000C04C4F1200220FA02F001FA04F340EAD3
:100618000300294630BD21FA04F0294630BD94F084
:10062800000F83F4801306BF81F480110134013D6B
:100638004EE77FEA645C18BF7FEA655C29D094EADC
:10064800050F08BF90EA020F05D054EA000C04BF5A
:100658001946104630BD91EA030F1EBF0021002045
:1006680030BD5FEA545C05D14000494128BF41F0E4
:10067800004130BD14F580043CBF01F5801130BD48
:1006880001F0004545F0FE4141F470014FF00000D3
:1006980030BD7FEA645C1ABF194610467FEA655C84
:1006A8001CBF0B46024650EA013406BF52EA033526
:1006B80091EA030F41F4002130BD00BF90F0000F14
:1006C80004BF0021704730B54FF4806404F1320450
:1006D8004FF000054FF0000150E700BF90F0000F09
:1006E80004BF0021704730B54FF4806404F1320430
:1006F80010F0004548BF40424FF000013EE700BF00
:1007080042004FEAE2014FEA31014FEA02701FBF8F
:1007180012F07F4393F07F4F81F06051704732F0C1
:100728007F4208BF704793F07F4F04BF41F4002118
:10073800704730B54FF4607401F0004521F0004176
:100748001CE700BF50EA010208BF704730B54FF000
:1007580000050AE050EA010208BF704730B511F001
:10076800004502D5404261EB41014FF4806404F139
:1007780032045FEA915C3FF4D8AE4FF003025FEABF
:10078800DC0C18BF03325FEADC0C18BF033202EB43
:10079800DC02C2F1200300FA03FC20FA02F001FA9D
:1007A80003FE40EA0E0021FA02F11444BDE600BF40
:1007B8004FF0FF3C06E000BF4FF0010C02E000BF25
:1007C8004FF0010C4DF804CD4FEA410C7FEA6C5C08
:1007D8004FEA430C18BF7FEA6C5C1BD001B050EAAB
:1007E800410C0CBF52EA430C91EA030F02BF90EA96
:1007F800020F0020704710F1000F91EA030F58BF55
:10080800994208BF90422CBFD8176FEAE37040F0B6
:10081800010070474FEA410C7FEA6C5C02D150EA54
:10082800013C07D14FEA430C7FEA6C5CD6D152EA0F
:10083800033CD3D05DF8040B704700BF84461046D4
:1008480062468C461946634600E000BF01B5FFF7D3
:10085800B7FF002848BF10F1000F01BD4DF808EDA3
:10086800FFF7F4FF0CBF012000205DF808FB00BF74
:100878004DF808EDFFF7EAFF34BF012000205DF8CE
:1008880008FB00BF4DF808EDFFF7E0FF94BF01201B
:1008980000205DF808FB00BF4DF808EDFFF7CEFF1C
:1008A80094BF012000205DF808FB00BF4DF808ED5B
:1008B800FFF7C4FF34BF012000205DF808FB00BF2C
:1008C8004FEA410212F5001215D211D56FF4787370
:1008D800B3EB625212D94FEAC12343F0004343EA13
:1008E800505311F0004F23FA02F018BF40427047EE
:1008F8004FF00000704750EA013005D111F0004078
:1009080008BF6FF0004070474FF00000704700BF0D
:1009180053B94AB9002908BF00281CBF4FF0FF315E
:100928004FF0FF3000F074B9ADF1080C6DE904CE5A
:1009380000F006F8DDF804E0DDE9022304B07047B2
:100948002DE9F047089D04468E46002B4DD18A427A
:10095800944669D9B2FA82F252B101FA02F3C2F1AD
:10096800200120FA01F10CFA02FC41EA030E94403E
:100978004FEA1C48210CBEFBF8F61FFA8CF708FB5F
:1009880016E341EA034306FB07F199420AD91CEB37
:10099800030306F1FF3080F01F81994240F21C8169
:1009A800023E63445B1AA4B2B3FBF8F008FB1033B1
:1009B80044EA034400FB07F7A7420AD91CEB0404E6
:1009C80000F1FF3380F00A81A74240F207816444B6
:1009D800023840EA0640E41B00261DB1D44000233B
:1009E800C5E900433146BDE8F0878B4209D9002D9F
:1009F80000F0EF800026C5E9000130463146BDE829
:100A0800F087B3FA83F6002E4AD18B4202D3824292
:100A180000F2F980841A61EB030301209E46002D41
:100A2800E0D0C5E9004EDDE702B9FFDEB2FA82F296
:100A3800002A40F09280A1EB0C014FEA1C471FFAF4
:100A48008CFE0126200CB1FBF7F307FB131140EADB
:100A580001410EFB03F0884208D91CEB010103F1A8
:100A6800FF3802D2884200F2CB804346091AA4B26A
:100A7800B1FBF7F007FB101144EA01440EFB00FE3E
:100A8800A64508D91CEB040400F1FF3102D2A645A3
:100A980000F2BB800846A4EB0E0440EA03409CE742
:100AA800C6F12007B34022FA07FC4CEA030C20FAEF
:100AB80007F401FA06F31C43F9404FEA1C4900FA0F
:100AC80006F3B1FBF9F8200C1FFA8CFE09FB18118C
:100AD80040EA014108FB0EF0884202FA06F20BD9FF
:100AE8001CEB010108F1FF3A80F08880884240F24F
:100AF8008580A8F102086144091AA4B2B1FBF9F093
:100B080009FB101144EA014100FB0EFE8E4508D98D
:100B18001CEB010100F1FF346CD28E456AD9023812
:100B2800614440EA0840A0FB0294A1EB0E01A142F7
:100B3800C846A64656D353D05DB1B3EB080261EB65
:100B48000E0101FA07F722FA06F3F1401F43C5E93F
:100B5800007100263146BDE8F087C2F12003D84075
:100B68000CFA02FC21FA03F3914001434FEA1C47B7
:100B78001FFA8CFEB3FBF7F007FB10360B0C43EAA9
:100B8800064300FB0EF69E4204FA02F408D91CEB59
:100B9800030300F1FF382FD29E422DD90238634457
:100BA8009B1B89B2B3FBF7F607FB163341EA0341F7
:100BB80006FB0EF38B4208D91CEB010106F1FF3846
:100BC80016D28B4214D9023E6144C91A46EA00463D
:100BD80038E72E46284605E70646E3E61846F8E6CF
:100BE8004B45A9D2B9EB020864EB0C0E0138A3E718
:100BF8004646EAE7204694E74046D1E7D0467BE7F9
:100C0800023B614432E7304609E76444023842E770
:100C1800704700BF80B500AF00F042FF00F026F833
:100C280000F088F907F0BAFD00F08AF800F034F90E
:100C380003F0ACF802460A4BDB68B2FBF3F3094A4F
:100C48001360074803F0C4F9074803F0C1F900210D
:100C5800054803F079FA0421034803F075FAFEE722
:100C68008C010020D40100204401002080B594B0FC
:100C780000AF07F1200330220021184608F0D0FA0F
:100C880007F10C0300221A605A609A60DA601A6150
:100C98000023BB60284B1B6C274A43F08053136426
:100CA800254B1B6C03F08053BB60BB6800237B6043
:100CB800224B1B6823F44043204A43F4004313604B
:100CC8001E4B1B6803F440437B607B6801233B6237
:100CD8004FF480337B620223BB634FF48003FB63D2
:100CE80019233B64C0237B640423BB640423FB6493
:100CF80007F12003184602F0EBFC0346002B01D055
:100D080000F0B8F90F23FB6002233B6100237B61ED
:100D18004FF48053BB610023FB6107F10C030121F1
:100D2800184602F04DFF0346002B01D000F0A2F94F
:100D380000BF5037BD4680BD0038024000700040FB
:100D480080B596B000AF07F1480300221A605A60D8
:100D58009A60DA6007F1400300221A605A6007F1CE
:100D6800240300221A605A609A60DA601A615A6194
:100D78009A613B1D20220021184608F051FA444B85
:100D8800444A1A60424B00225A60414B00229A6042
:100D98003F4B40F2BF32DA603D4B00221A613C4BB8
:100DA80000225A613A4B80229A61394803F0C0F810
:100DB8000346002B01D000F05DF94FF48053BB646B
:100DC80007F148031946324803F038FC0346002B64
:100DD80001D000F04FF92E4803F05CF90346002BD0
:100DE80001D000F047F900233B6400237B6407F13E
:100DF80040031946264803F0E7FF0346002B01D0BD
:100E080000F038F960237B620023BB620023FB6299
:100E180000233B6300237B630023BB630023FB6346
:100E280007F1240300221946194803F045FB03463D
:100E3800002B01D000F01EF907F124030422194603
:100E4800134803F039FB0346002B01D000F012F9D8
:100E580000237B600023BB600023FB6000233B6111
:100E680000237B614FF40053BB6100233B623B1DB1
:100E78001946074804F016F80346002B01D000F085
:100E8800F9F8034800F090F900BF5837BD4680BD17
:100E9800440100200000014080B586B000AF07F192
:100EA800080300221A605A609A60DA603B46002202
:100EB8001A605A601D4B1E4A1A601C4B00225A6069
:100EC8001A4B00229A60194B4BF68032DA60174BA6
:100ED80000221A61154B80229A61144803F028F801
:100EE8000346002B01D000F0C5F84FF48053BB60D7
:100EF80007F1080319460D4803F0A0FB0346002B31
:100F080001D000F0B7F800233B6000237B603B462C
:100F18001946064803F058FF0346002B01D000F09D
:100F2800A9F800BF1837BD4680BD00BF8C0100205E
:100F38000008004080B58AB000AF07F11403002212
:100F48001A605A609A60DA601A6100233B61454B67
:100F58001B6B444A43F004031363424B1B6B03F0BF
:100F680004033B613B690023FB603E4B1B6B3D4A1E
:100F780043F0800313633B4B1B6B03F08003FB6060
:100F8800FB680023BB60374B1B6B364A43F00103F9
:100F98001363344B1B6B03F00103BB60BB68002376
:100FA8007B60304B1B6B2F4A43F0020313632D4BBE
:100FB8001B6B03F002037B607B6800224FF4005137
:100FC800294801F0B1F800227821284801F0ACF84E
:100FD8004FF400537B610123BB610023FB610023B5
:100FE8003B6207F1140319461F4800F001FF05236F
:100FF8007B614FF44413BB610023FB6107F11403C9
:1010080019461B4800F0F4FE0A237B610023BB61EC
:101018000023FB6107F114031946154800F0E8FEA8
:1010280078237B610123BB610023FB6100233B62C2
:1010380007F1140319460D4800F0DAFE00220021DA
:10104800062000F09EFE062000F0B7FE00220021D8
:10105800082000F096FE082000F0AFFE00BF2837F9
:10106800BD4680BD0038024000080240000402402E
:101078000000024080B500AF72B600BF20220449CC
:10108800044808F0BFF82021024807F045FCF5E7BE
:10109800100000200000002080B582B000AF0023BF
:1010A8007B60214B5B6C204A43F4804353641E4BA6
:1010B8005B6C03F480437B607B6800233B601A4BC6
:1010C8001B6C194A43F080531364174B1B6C03F0D5
:1010D80080533B603B68002203216FF00B0000F057
:1010E80050FE002203216FF00A0000F04AFE0022A1
:1010F80003216FF0090000F044FE002203216FF085
:10110800040000F03EFE002203216FF0030000F00F
:1011180038FE002203216FF0010000F032FE00BF0C
:101128000837BD4680BD00BF0038024080B584B096
:1011380000AF78607B681B68184A93420ED1002381
:10114800FB60174B5B6C164A43F001035364144B66
:101158005B6C03F00103FB60FB681AE07B681B68AB
:10116800104A934215D10023BB600D4B1B6C0C4AEF
:1011780043F0040313640A4B1B6C03F00403BB60C5
:10118800BB68002203211E2000F0FBFD1E2000F09A
:1011980014FE00BF1037BD4680BD00BF00000140EF
:1011A800003802400008004080B588B000AF786081
:1011B80007F10C0300221A605A609A60DA601A611B
:1011C8007B681B68124A93421ED10023BB60114BF7
:1011D8001B6B104A43F0010313630E4B1B6B03F0A8
:1011E8000103BB60BB684FF44073FB6002233B61A3
:1011F80000237B610023BB610123FB6107F10C0322
:101208001946054800F0F4FD00BF2037BD4680BDF3
:1012180000000140003802400000024080B400AFE6
:10122800FEE780B400AFFEE780B400AFFEE780B40D
:1012380000AFFEE780B400AFFEE780B400AF00BFA8
:10124800BD465DF8047B704780B400AF00BFBD4663
:101258005DF8047B704780B400AF00BFBD465DF801
:10126800047B704780B500AF00F06CFC00BF80BD08
:1012780080B500AF0121214800F03EFF0346002B56
:1012880011D002211D4800F037FF0346002B05D07E
:101298001B4B1B6801331A4A136004E0184B1B6888
:1012A800013B174A13600121144800F025FF03464B
:1012B800002B11D10221114800F01EFF0346002B1C
:1012C80005D00F4B1B68013B0D4A136004E00C4B23
:1012D8001B6801330A4A1360094B1B6807EE903AF2
:1012E800B8EEE77ADFED076AC7EE267A064BC3ED5C
:1012F800007A012000F04CFF00BF80BD00000240D2
:10130800000200200000A0420802002080B500AFC3
:101318000421214800F0F0FE0346002B11D00821DB
:101328001D4800F0E9FE0346002B05D01B4B1B6847
:1013380001331A4A136004E0184B1B68013B174A33
:1013480013600421144800F0D7FE0346002B11D186
:101358000821114800F0D0FE0346002B05D00F4BA2
:101368001B68013B0D4A136004E00C4B1B680133FA
:101378000A4A1360094B1B6807EE903AB8EEE77A01
:10138800DFED076AC7EE267A064BC3ED007A042024
:1013980000F0FEFE00BF80BD0000024004020020F5
:1013A8000000A0420C020020B0B582B000AFB64BDE
:1013B8001B78002B40F07982B44B1B78002B40F04F
:1013C8007482B34B1B68B34A1360B14B1B68B24AB3
:1013D8001360B04BD3ED007A9FEDB07A67EE877A51
:1013E800FDEEE77AF8EEE77AAD4BC3ED007AAA4B4B
:1013F800D3ED007A9FEDA97A67EE877AFDEEE77A5A
:10140800F8EEE77AA74BC3ED007AA54B93ED007A87
:10141800A54B1B6807EE903AF8EEE77A77EE677A05
:10142800A24BC3ED007A9F4B93ED007AA04B1B684B
:1014380007EE903AF8EEE77A77EE677A9D4BC3EDC0
:10144800007A9A4B93ED007A9B4BD3ED007A37EEF6
:10145800677A9A4B1B6807EE903AF8EE677A67EE60
:10146800277AC7ED017A934B93ED007A944BD3ED2D
:10147800007A37EE677A914B1B6807EE903AF8EEE0
:10148800677A67EE277AC7ED007A884BD3ED006A52
:101498008A4B1B6807EE903AF8EE677A86EEA77AD1
:1014A800884BD3ED007A77EE277A864BC3ED007A26
:1014B800804BD3ED006A814B1B6807EE903AF8EE3B
:1014C800677A86EEA77A804BD3ED007A77EE277A93
:1014D8007D4BC3ED007A7B4BD3ED007A9FED7B7A91
:1014E800F4EEC77AF1EE10FA02DB764B784A1A600E
:1014F800754BD3ED007A9FED757AF4EEC77AF1EE6D
:1015080010FA02DB704B724A1A606E4BD3ED007A08
:101518009FED707AF4EEC77AF1EE10FA02D8694BB3
:101528006D4A1A60684BD3ED007A9FED6A7AF4EE43
:10153800C77AF1EE10FA02D8634B674A1A605B4B20
:10154800D3ED007AF5EEC07AF1EE10FA07DD5D4BC7
:10155800D3ED007AF5EEC07AF1EE10FA0FD4534BC2
:10156800D3ED007AF5EEC07AF1EE10FA0BD5554BB3
:10157800D3ED007AF5EEC07AF1EE10FA03DD514BA7
:101588004FF000021A604B4BD3ED007AF5EEC07AAB
:10159800F1EE10FA07DD4C4BD3ED007AF5EEC07A88
:1015A800F1EE10FA0FD4434BD3ED007AF5EEC07A82
:1015B800F1EE10FA0BD5444BD3ED007AF5EEC07A74
:1015C800F1EE10FA03DD404B4FF000021A60374B82
:1015D8001B68394A1360374B1B68394A13603F4B05
:1015E80093ED007A314BD3ED007A27EE277A3C4B06
:1015F800D3ED006AD7ED017A66EEA77A37EE277A3F
:10160800384BD3ED006A2F4BD3ED007A66EEA77AFC
:1016180077EE277AFDEEE77A17EE902A324B1A60BA
:10162800324B93ED007A234BD3ED007A27EE277ADD
:101638002F4BD3ED006AD7ED007A66EEA77A37EE26
:10164800277A2C4BD3ED006A1F4BD3ED007A66EE58
:10165800A77A77EE277AFDEEE77A17EE902A264BDF
:101668001A60214B1B68002B4EDD244B1B781A4651
:101678000821234800F058FD224B1B781A461021F8
:101688001F4800F051FD52E0E4010020E501002070
:10169800DC010020180200201C0200200000A042EB
:1016A8001002002014020020040200202002002062
:1016B800000200202402002028020020D40100207B
:1016C8002C020020300200203402002000002042BA
:1016D80000002042000020C2000020C218000020A4
:1016E800380200201C0000204002002020000020BA
:1016F8003C02002024000020440200202800002092
:1017080000040240480200207D4B1B685B427C4A73
:1017180013607C4B1B781A4610217B4800F004FDAF
:101728007A4B1B781A460821774800F0FDFC784B65
:101738001B68002B0EDD734B1B781A46202172485C
:1017480000F0F2FC714B1B781A4640216E4800F0FD
:10175800EBFC12E06E4B1B685B426D4A1360694BF1
:101768001B781A464021684800F0DEFC674B1B785E
:101778001A462021644800F0D7FC614B1B681846C4
:10178800FEF7ACFF04460D46624BDB680133184692
:10179800FEF794FF58A3D3E90023FEF723FD024682
:1017A8000B4620462946FFF781F80346002B13D045
:1017B800584BDB6801331846FEF780FF4EA3D3E988
:1017C8000023FEF70FFD02460B4610461946FFF7A9
:1017D80077F803464A4A13604D4B1B681846FEF7D4
:1017E8007DFF04460D464B4BDB6801331846FEF778
:1017F80065FF41A3D3E90023FEF7F4FC02460B463C
:1018080020462946FFF752F80346002B13D0414BD8
:10181800DB6801331846FEF751FF37A3D3E90023ED
:10182800FEF7E0FC02460B4610461946FFF748F85B
:101838000346374A1360384BD3ED007AF0EEE77A67
:10184800B1EE047AF4EEC77AF1EE10FA23D8334BEE
:10185800D3ED007AF0EEE77AB1EE047AF4EEC77AC7
:10186800F1EE10FA17D82E4B00225A632C4B0022A7
:101878009A632C4B1B78012B16D12B4B2B4A92E8E1
:10188800030083E803000821274807F045F8254BA3
:1018980000221A7008E01A4B1A68214B5A631C4B35
:1018A8001A681F4B9A6310E00FE01D4B00225A6321
:1018B8001B4B00229A631C4B1D4A92E8030083E8E5
:1018C80003000821184807F027F81A4B93ED007A0F
:1018D800194BD3ED007A37EE277AF0EE006AC7EE9F
:1018E800267A164BC3ED007A154802F0DDFC00BFDE
:1018F8000837BD46B0BD00BF666666666666EE3FE1
:101908004002002028000020000402404802002075
:10191800440200204401002020020020240200206C
:1019280000000140E601002000000020080000201F
:1019380010000020080200200C020020E001002016
:101948008C01002080B500AF08212D4806F0D0FF9B
:101958002C492B48FEF73CFC0346002B45D04FF49E
:101968000051294800F0F9FB284B254A92E803006A
:1019780083E80300254B1B786D2B2FD1234B5B7815
:101988009BB21B029AB2214B9B789BB213449BB229
:101998001AB21F4B1A801D4BDB789BB21B029AB2FE
:1019A8001A4B1B799BB213449BB21AB2194B1A807B
:1019B800184BB3F9003007EE903AF8EEE77AF2EEFA
:1019C800046A87EEA67A144BD3ED007A77EE277A6D
:1019D800114BC3ED007A114B01221A700B4B1B7887
:1019E800732B02D10E4B01221A70082200210448E1
:1019F80007F016FC0B4800F03EFD00BF80BD00BF9D
:101A0800F0010020F801002000080240E801002051
:101A1800D8010020DA010020DC010020E6010020C6
:101A2800E5010020300F002080B400AF064BD3F84A
:101A38008830054A43F47003C2F8883000BFBD46B9
:101A48005DF8047B704700BF00ED00E0DFF834D09C
:101A58000D480E490E4A002302E0D458C4500433FE
:101A6800C4188C42F9D30B4A0B4C002301E01360D5
:101A78000432A242FBD3FFF7D7FF07F09FFBFFF723
:101A8800C9F870470000012000000020280100204C
:101A9800B8920008280100205C160020FEE700002C
:101AA80080B500AF0E4B1B680D4A43F400731360FA
:101AB8000B4B1B680A4A43F480631360084B1B688E
:101AC800074A43F480731360032000F04FF90F2096
:101AD80000F008F8FFF7E0FA0023184680BD00BFC1
:101AE800003C024080B582B000AF7860124B1A68A3
:101AF800124B1B7819464FF47A73B3FBF1F3B2FB20
:101B0800F3F3184600F067F90346002B01D00123D0
:101B18000EE07B680F2B0AD8002279684FF0FF305F
:101B280000F02FF9064A7B681360002300E00123C8
:101B380018460837BD4680BD2C0000203400002020
:101B48003000002080B400AF064B1B781A46064BC5
:101B58001B681344044A136000BFBD465DF8047B4C
:101B6800704700BF340000204C02002080B400AF52
:101B7800034B1B681846BD465DF8047B704700BFE1
:101B88004C02002080B584B000AF7860FFF7EEFF0C
:101B9800B8607B68FB60FB68B3F1FF3F05D00A4B78
:101BA8001B781A46FB681344FB6000BFFFF7DEFF93
:101BB8000246BB68D31AFA689A42F7D800BF00BF3A
:101BC8001037BD4680BD00BF3400002080B485B00A
:101BD80000AF78607B6803F00703FB600C4BDB68A1
:101BE800BB60BA684FF6FF031340BB60FB681A027C
:101BF800BB68134343F0BF6343F40033BB60044A3C
:101C0800BB68D36000BF1437BD465DF8047B7047DE
:101C180000ED00E080B400AF044BDB681B0A03F062
:101C280007031846BD465DF8047B704700ED00E0E9
:101C380080B483B000AF0346FB7197F90730002BDF
:101C48000BDBFB7903F01F02074997F907305B09A3
:101C5800012000FA02F241F8232000BF0C37BD46EC
:101C68005DF8047B704700BF00E100E080B483B0FA
:101C780000AF03463960FB7197F90730002B0ADB88
:101C88003B68DAB20C4997F907301201D2B20B441B
:101C980083F800230AE03B68DAB20849FB7903F0CD
:101CA8000F03043B1201D2B20B441A7600BF0C3763
:101CB800BD465DF8047B704700E100E000ED00E000
:101CC80080B489B000AFF860B9607A60FB6803F04F
:101CD8000703FB61FB69C3F10703042B28BF042337
:101CE800BB61FB690433062B02D9FB69033B00E0A7
:101CF80000237B614FF0FF32BB6902FA03F3DA433A
:101D0800BB681A407B699A404FF0FF317B6901FA42
:101D180003F3D9437B680B40134318462437BD4669
:101D28005DF8047B7047000080B582B000AF786032
:101D38007B68013BB3F1807F01D301230FE00A4A9E
:101D48007B68013B53600F214FF0FF30FFF78EFF98
:101D5800054B00229A60044B07221A60002318469C
:101D68000837BD4680BD00BF10E000E080B582B0F6
:101D780000AF78607868FFF729FF00BF0837BD46D5
:101D880080BD80B586B000AF0346B9607A60FB734A
:101D980000237B61FFF73EFF78617A68B96878694C
:101DA800FFF78EFF024697F90F3011461846FFF7E6
:101DB8005DFF00BF1837BD4680BD80B582B000AF5B
:101DC8000346FB7197F907301846FFF731FF00BF4C
:101DD8000837BD4680BD80B582B000AF78607868AE
:101DE800FFF7A2FF034618460837BD4680BD00002E
:101DF80080B489B000AF7860396000237B6100232C
:101E08003B610023BB610023FB6159E10122FB69AF
:101E180002FA03F37B613B681B687A6913403B61F4
:101E28003A697B699A4240F048813B685B6803F0F5
:101E38000303012B05D03B685B6803F00303022B07
:101E480030D17B689B68BB61FB695B00032202FAA7
:101E580003F3DB43BA691340BB613B68DA68FB698B
:101E68005B0002FA03F3BA691343BB617B68BA6982
:101E78009A607B685B68BB610122FB6902FA03F325
:101E8800DB43BA691340BB613B685B681B0903F01D
:101E98000102FB6902FA03F3BA691343BB617B6869
:101EA800BA695A603B685B6803F00303032B17D0D9
:101EB8007B68DB68BB61FB695B00032202FA03F302
:101EC800DB43BA691340BB613B689A68FB695B00F6
:101ED80002FA03F3BA691343BB617B68BA69DA6033
:101EE8003B685B6803F00303022B23D1FB69DA0824
:101EF8007B68083253F82230BB61FB6903F00703A3
:101F08009B000F2202FA03F3DB43BA691340BB615B
:101F18003B681A69FB6903F007039B0002FA03F3A5
:101F2800BA691343BB61FB69DA087B680832B9698F
:101F380043F822107B681B68BB61FB695B000322C6
:101F480002FA03F3DB43BA691340BB613B685B6881
:101F580003F00302FB695B0002FA03F3BA69134357
:101F6800BB617B68BA691A603B685B6803F44033FD
:101F7800002B00F0A2800023FB60574B5B6C564A95
:101F880043F480435364544B5B6C03F48043FB601D
:101F9800FB68524AFB699B08023352F82330BB6145
:101FA800FB6903F003039B000F2202FA03F3DB43F0
:101FB800BA691340BB617B68494A934219D07B6870
:101FC800484A934213D07B68474A93420DD07B68B6
:101FD800464A934207D07B68454A934201D104237D
:101FE80008E0072306E0032304E0022302E00123BC
:101FF80000E00023FA6902F0030292009340BA69F4
:102008001343BB613549FB699B080233BA6941F840
:102018002320384B9B68BB613B69DB43BA6913409B
:10202800BB613B685B6803F48013002B03D0BA697B
:102038003B691343BB612F4ABB6993602D4BDB6837
:10204800BB613B69DB43BA691340BB613B685B68B2
:1020580003F40013002B03D0BA693B691343BB6137
:10206800244ABB69D360234B5B68BB613B69DB4394
:10207800BA691340BB613B685B6803F40033002B0B
:1020880003D0BA693B691343BB611A4ABB69536001
:10209800184B1B68BB613B69DB43BA691340BB61E2
:1020A8003B685B6803F48033002B03D0BA693B6953
:1020B8001343BB610F4ABB691360FB690133FB61C2
:1020C800FB690F2B7FF6A2AE00BF00BF2437BD46C9
:1020D8005DF8047B704700BF0038024000380140BB
:1020E800000002400004024000080240000C0240C8
:1020F80000100240003C014080B485B000AF786019
:102108000B467B807B681A697B881340002B02D0C2
:102118000123FB7301E00023FB73FB7B1846143794
:10212800BD465DF8047B704780B483B000AF78602B
:102138000B467B8013467B707B78002B03D07A8814
:102148007B689A6103E07B881A047B689A6100BF08
:102158000C37BD465DF8047B704780B485B000AF8E
:1021680078600B467B807B685B69FB607A88FB68DC
:1021780013401A04FB68D9437B880B401A437B68D9
:102188009A6100BF1437BD465DF8047B70470000B4
:1021980080B582B000AF0346FB80084B5A69FB88C4
:1021A8001340002B06D0054AFB885361FB8818466C
:1021B80000F006F800BF0837BD4680BD003C01406E
:1021C80080B483B000AF0346FB8000BF0C37BD4628
:1021D8005DF8047B7047F0B58FB00AAF78607B6814
:1021E800002B01D101230FE17B681B68BB607B6872
:1021F80093F8BD34DBB2002B06D17B68002283F84C
:10220800BC24786806F0D0FC7B68032283F8BD24E0
:10221800BB68DB6B03F48073002B02D17B68002260
:102228001A617B681B68184602F0B7FF7B681B6859
:102238003B607E686D4606F110040FCC0FC50FCCCD
:102248000FC594E8030085E80300331D0ECB3868FA
:1022580002F08EFE0346002B05D07B68022283F82D
:10226800BD240123D0E07B681B680021184602F0DA
:10227800A5FF0023FB734AE0FA7B79681346DB006D
:1022880013449B000B443D3301221A70FA7B796892
:102298001346DB0013449B000B443C33FA7B1A7053
:1022A800FA7BFB7B98B279681346DB0013449B00EA
:1022B8000B44443302461A80FA7B79681346DB00E4
:1022C80013449B000B44403300221A70FA7B796850
:1022D8001346DB0013449B000B44483300221A606A
:1022E800FA7B79681346DB0013449B000B444C339C
:1022F80000221A60FA7B79681346DB0013449B00BE
:102308000B44543300221A60FB7B0133FB73FA7BC6
:102318007B685B689A42AFD30023FB7344E0FA7B87
:1023280079681346DB0013449B000B4403F27D23BA
:1023380000221A70FA7B79681346DB0013449B006D
:102348000B4403F51F73FA7B1A70FA7B79681346FE
:10235800DB0013449B000B4403F5207300221A7022
:10236800FA7B79681346DB0013449B000B4403F5A2
:10237800227300221A60FA7B79681346DB00134443
:102388009B000B4403F5237300221A60FA7B7968DB
:102398001346DB0013449B000B4403F5257300220E
:1023A8001A60FB7B0133FB73FA7B7B685B689A429C
:1023B800B5D37B681B683B607E686D4606F11004E8
:1023C8000FCC0FC50FCC0FC594E8030085E80300B8
:1023D800331D0ECB386802F03DFF0346002B05D0B5
:1023E8007B68022283F8BD2401230DE07B6800226C
:1023F80083F838207B68012283F8BD247B681B683A
:10240800184604F08CF8002318461437BD46F0BD72
:1024180080B584B000AF78607B681B68FB607B6820
:1024280093F8BC34012B01D1022320E07B68012200
:1024380083F8BC247B689B6A012B09D17B689B6964
:10244800012B05D0FB689B6B43F48032FB689A63D1
:102458007B681B68184602F08FFE7B681B6818466D
:1024680004F03CF87B68002283F8BC24002318465B
:102478001037BD4680BD90B58DB000AF78607B68E1
:102488001B683B623B6AFB617B681B68184604F06B
:10249800FAF80346002B40F08A847B681B681846CC
:1024A80004F05EF80346002B00F08084FB6903F516
:1024B80000639B681B0AC3F30D027B68C3F8FC2406
:1024C8007B681B68184604F04BF8034603F00203C8
:1024D800022B07D17B681B685A697B681B6802F06E
:1024E80002025A617B681B68184604F039F80346F3
:1024F80003F01003102B61D17B681B689A697B6815
:102508001B6822F010029A613B6A1B6ABB61BB69B7
:1025180003F00F021346DB0013449B0003F51E7300
:102528007A68134404337B61BB695B0C03F00F03C7
:10253800022B24D1BA6947F6F0731340002B35D02B
:102548007B691969BB691B099BB2C3F30A039BB278
:102558001A46386A03F070FE7B691A69BB691B0961
:10256800C3F30A031A447B691A617B691A6ABB6957
:102578001B09C3F30A031A447B691A6216E0BB6994
:102588005B0C03F00F03062B10D17B6803F2C443E6
:1025980008221946386A03F04FFE7B691A6ABB693C
:1025A8001B09C3F30A031A447B691A627B681B6818
:1025B8009A697B681B6842F010029A617B681B6805
:1025C800184603F0CDFF034603F40023B3F5002FAC
:1025D80040F0A78000237B627B681B68184603F0E5
:1025E800D2FFB86299E0BB6A03F00103002B00F048
:1025F8008E807B681B687A6AD2B21146184603F04F
:10260800F6FF38613B6903F00103002B0CD07B6AAD
:102618005A01FB69134403F530631A46012393609A
:10262800796A786800F0C2FE3B6903F00803002B62
:102638000CD07B6A5A01FB69134403F530631A46D0
:1026480008239360796A786800F098FF3B6903F083
:102658001003002B08D07B6A5A01FB69134403F569
:1026680030631A46102393603B6903F00203002B82
:1026780030D03B6A5B6903F08003802B09D1FB698A
:1026880003F500635B68FA6902F5006243F480634E
:1026980053607A6A1346DB0013449B0003F51E73EC
:1026A8007A68134404337B617B69DB78012B08D19A
:1026B8007B690022DA707B6ADBB21946786806F01B
:1026C8006FFB7B6A5A01FB69134403F530631A46B2
:1026D800022393603B6903F02003002B08D07B6A38
:1026E8005A01FB69134403F530631A4620239360AB
:1026F8003B6903F40053002B09D07B6A5A01FB693C
:10270800134403F530631A464FF4005393607B6A11
:1027180001337B62BB6A5B08BB62BB6A002B7FF438
:1027280062AF7B681B68184603F01AFF034603F480
:102738008023B3F5802F40F0DB807B681B68184648
:1027480003F03BFFB86200237B62CDE0BB6A03F075
:102758000103002B00F0C2807B681B687A6AD2B242
:102768001146184603F061FF38613B6903F0010325
:10277800002B57D07B6A03F00F03012202FA03F300
:10278800FB60FB6903F500635A6BFB68DB43F9697F
:1027980001F5006113404B637B6A5A01FB691344DE
:1027A80003F510631A46012393607B681B69012BAC
:1027B80032D179687A6A1346DB0013449B000B44D4
:1027C8004C33196878687A6A1346DB0013449B0017
:1027D800034448331B68194478687A6A1346DB0057
:1027E80013449B0003444C3319607B6A002B13D1BC
:1027F80079687A6A1346DB0013449B000B44543310
:102808001B68002B08D17B6818687B6803F2C443F7
:102818001A46012103F068FF7B6ADBB21946786823
:1028280006F043FA3B6903F00803002B08D07B6AE3
:102838005A01FB69134403F510631A460823936091
:102848003B6903F01003002B08D07B6A5A01FB692F
:10285800134403F510631A46102393603B6903F091
:102868004003002B08D07B6A5A01FB69134403F527
:1028780010631A46402393603B6903F00203002B60
:1028880023D0796A386A02F049FE7A6A1346DB0077
:1028980013449B0038337A68134404337B617B69A3
:1028A800DB78012B08D17B690022DA707B6ADBB206
:1028B8001946786806F086FA7B6A5A01FB69134460
:1028C80003F510631A46022393603B6903F0800303
:1028D800002B03D0796A786800F0DBFC7B6A01334F
:1028E8007B62BB6A5B08BB62BB6A002B7FF42EAFBE
:1028F8007B681B68184603F033FE034603F0004369
:10290800B3F1004F22D1FB6903F500635B68FA69F4
:1029180002F5006223F0010353607B6893F8F434F6
:10292800012B08D17B68002283F8F4240021786801
:1029380000F0C2FE02E0786806F024FA7B681B68A3
:102948005A697B681B6802F000425A617B681B6801
:10295800184603F005FE034603F40063B3F5006F61
:1029680012D1FB6903F500639B6803F00103012B97
:1029780002D1786806F0E0F97B681B685A697B68C1
:102988001B6802F400625A617B681B68184603F0F2
:10299800E7FD034603F48053B3F5805F40F0B7804A
:1029A800FB6903F500635B68FA6902F5006223F0CE
:1029B800010353607B681B681021184602F0AEFDC6
:1029C8000023FB6246E0FB6A5A01FB69134403F5E6
:1029D80010631A464FF67F339360FB6A5A01FB690E
:1029E800134403F510631B68FA6A5101FA690A4433
:1029F80002F5106223F400131360FB6A5A01FB69A5
:102A0800134403F530631A464FF67F339360FB6A2D
:102A18005A01FB69134403F530631B68FA6A5101D4
:102A2800FA690A4402F5306223F400131360FB6A62
:102A38005A01FB69134403F530631B68FA6A5101B4
:102A4800FA690A4402F5306243F000631360FB6AD6
:102A58000133FB627B685B68FA6A9A42B3D3FB690D
:102A680003F50063DB69FA6902F5006243F00113BC
:102A7800D3617B681B6B002B16D0FB6903F50063E1
:102A8800D3F88430FA6902F5006243F00B03C2F808
:102A98008430FB6903F500635B6CFA6902F5006238
:102AA80043F00B03536415E0FB6903F500635B69AE
:102AB800FA6902F5006243F4005343F02B035361B3
:102AC800FB6903F500631B69FA6902F5006243F0CC
:102AD8000B031361FB6903F500631B68FA6902F5D0
:102AE800006223F4FE6313607B6818687B681B69C7
:102AF800D9B27B6803F2C4431A4603F0F5FD7B683C
:102B08001B685A697B681B6802F480525A617B68AB
:102B18001B68184603F024FD034603F40053B3F57D
:102B2800005F24D17B681B68184603F0BAFD7B68F8
:102B38001B68184602F06FFD03461A467B68DA6088
:102B48007B681C6801F0E8F901467B68DB68DBB24A
:102B58001A46204602F06EFA786806F0CEF87B68CE
:102B68001B685A697B681B6802F400525A617B68CB
:102B78001B68184603F0F4FC034603F00803082B0F
:102B88000AD1786806F0ABF87B681B685A697B68DD
:102B98001B6802F008025A617B681B68184603F03C
:102BA800DFFC034603F08003802B22D13B6A9B693C
:102BB80023F080023B6A9A6101237B6214E0796802
:102BC8007A6A1346DB0013449B000B4403F27F230D
:102BD8001B78012B05D17B6ADBB21946786800F0B7
:102BE80027FB7B6A01337B627B685B687A6A9A425F
:102BF800E5D37B681B68184603F0B2FC034603F470
:102C08008013B3F5801F3BD101237B622BE07B6AE5
:102C18005A01FB69134403F510631B68BB617968AB
:102C28007A6A1346DB0013449B000B4440331B783D
:102C3800012B15D1BB69002B12DA79687A6A134621
:102C4800DB0013449B000B443F3301221A707B6A5C
:102C5800DBB263F07F03DBB21946786800F0E8FA6C
:102C68007B6A01337B627B685B687A6A9A42CED35F
:102C78007B681B685A697B681B6802F480125A617A
:102C88007B681B68184603F06BFC034603F40013CB
:102C9800B3F5001F55D101237B6245E07B6A5A01D9
:102CA800FB69134403F530631B68BB6179687A6A72
:102CB8001346DB0013449B000B4403F520731B7879
:102CC800012B2ED1BB69002B2BDABB6903F48032B0
:102CD8007B68D3F8FC3403F001039A4221D1796868
:102CE8007A6A1346DB0013449B000B4403F27F23EC
:102CF80001221A703B6A9B6943F080023B6A9A6121
:102D08003B6A5B6903F08003002B0AD1FB6903F57A
:102D180000635B68FA6902F5006243F4007353606C
:102D280007E07B6A01337B627B685B687A6A9A4258
:102D3800B4D37B681B685A697B681B6802F400126D
:102D48005A617B681B68184603F00AFC034603F0C7
:102D58008043B3F1804F0AD1786806F045F87B6864
:102D68001B685A697B681B6802F080425A617B685D
:102D78001B68184603F0F4FB034603F00403042B16
:102D880015D17B681B685B68BB61BB6903F00403F2
:102D9800002B02D0786806F035F87B681B68596804
:102DA8007B681B68BA690A435A6000E000BF343781
:102DB800BD4690BD80B582B000AF78600B46FB7011
:102DC8007B6893F8BC34012B01D1022313E07B68A4
:102DD800012283F8BC247B68FA7883F838207B6862
:102DE8001B68FA781146184603F052FB7B680022EC
:102DF80083F8BC24002318460837BD4680BD80B53B
:102E080084B000AF7860084611461A460346FB7046
:102E18000B463B801346BB700023FB7297F90330C7
:102E2800002B0FDAFB7803F00F021346DB00134484
:102E38009B0038337A6813440433FB60FB68012233
:102E48005A700FE0FB7803F00F021346DB001344BF
:102E58009B0003F51E737A6813440433FB60FB6818
:102E680000225A70FB7803F00F03DAB2FB681A707D
:102E78003A88FB68DA60FB68BA781A71FB685B7895
:102E8800002B04D0FB681B789AB2FB681A81BB78C8
:102E9800022B02D1FB6800225A717B6893F8BC347C
:102EA800012B01D102230EE07B68012283F8BC24A8
:102EB8007B681B68F968184602F0D2FB7B68002221
:102EC80083F8BC24FB7A18461037BD4680BD80B510
:102ED80084B000AF78600B46FB7097F90330002B85
:102EE8000FDAFB7803F00F021346DB0013449B0054
:102EF80038337A6813440433FB60FB6801225A7044
:102F08000FE0FB7803F00F021346DB0013449B002D
:102F180003F51E737A6813440433FB60FB680022D0
:102F28005A70FB7803F00F03DAB2FB681A707B68FB
:102F380093F8BC34012B01D102230EE07B680122F7
:102F480083F8BC247B681B68F968184602F010FCFB
:102F58007B68002283F8BC24002318461037BD463E
:102F680080BD80B586B000AFF8607A603B600B46E4
:102F7800FB72FB7A03F00F021346DB0013449B003D
:102F880003F51E73FA68134404337B617B697A681E
:102F98001A617B693A689A617B6900221A627B69C7
:102FA80000225A70FB7A03F00F03DAB27B691A70B9
:102FB800FB681B69012B02D17A687B695A61FB7A2D
:102FC80003F00F03002B09D1FB681868FB681B6925
:102FD800DBB21A46796902F0EFFE08E0FB68186870
:102FE800FB681B69DBB21A46796902F09DFC002375
:102FF80018461837BD4680BD80B483B000AF7860EE
:103008000B46FB70FB7803F00F0279681346DB0070
:1030180013449B000B4403F527731B6818460C37B1
:10302800BD465DF8047B704780B586B000AFF86098
:103038007A603B600B46FB72FB7A03F00F02134683
:10304800DB0013449B003833FA68134404337B6174
:103058007B697A681A617B693A689A617B690022A0
:103068001A627B6901225A70FB7A03F00F03DAB205
:103078007B691A70FB681B69012B02D17A687B692E
:103088005A61FB7A03F00F03002B09D1FB6818681B
:10309800FB681B69DBB21A46796902F08DFE08E00D
:1030A800FB681868FB681B69DBB21A46796902F08D
:1030B8003BFC002318461837BD4680BD80B584B058
:1030C80000AF78600B46FB70FB7803F00F027B685B
:1030D8005B689A4201D9012350E097F90330002B2D
:1030E8000FDAFB7803F00F021346DB0013449B0052
:1030F80038337A6813440433FB60FB6801225A7042
:103108000DE0FA781346DB0013449B0003F51E73A9
:103118007A6813440433FB60FB6800225A70FB682A
:1031280001229A70FB7803F00F03DAB2FB681A7079
:103138007B6893F8BC34012B01D102231EE07B6825
:10314800012283F8BC247B681B68F968184603F0E1
:10315800CBF8FB7803F00F03002B0AD17B681868C3
:103168007B681B69D9B27B6803F2C4431A4603F033
:10317800BBFA7B68002283F8BC240023184610376A
:10318800BD4680BD80B584B000AF78600B46FB704B
:10319800FB7803F00F027B685B689A4201D9012330
:1031A80042E097F90330002B0FDAFB7803F00F02A7
:1031B8001346DB0013449B0038337A681344043306
:1031C800FB60FB6801225A700FE0FB7803F00F02E6
:1031D8001346DB0013449B0003F51E737A681344FF
:1031E8000433FB60FB6800225A70FB6800229A7067
:1031F800FB7803F00F03DAB2FB681A707B6893F868
:10320800BC34012B01D102230EE07B68012283F834
:10321800BC247B681B68F968184603F0D3F87B6800
:10322800002283F8BC24002318461037BD4680BD11
:1032380080B584B000AF78600B46FB7097F9033017
:10324800002B0CDAFB7803F00F021346DB00134463
:103258009B0038337A6813440433FB600CE0FB7836
:1032680003F00F021346DB0013449B0003F51E73A3
:103278007A6813440433FB607B681B68F968184656
:1032880002F0F2FE0346FB72FB7A18461037BD4681
:1032980080BD80B58AB002AF786039607B681B68F2
:1032A8007B617B693B613A681346DB0013449B00F2
:1032B80038337A6813440433FB60FB681A6AFB6886
:1032C8009B699A4201D901236CE0FB689A69FB6803
:1032D8001B6AD31AFB61FB68DB68FA699A4202D958
:1032E800FB68DB68FB61FB6903339B08BB612BE070
:1032F800FB689A69FB681B6AD31AFB61FB68DB6889
:10330800FA699A4202D9FB68DB68FB61FB690333FF
:103318009B08BB61FB6819693B68DAB2FB6998B224
:103328007B681B69DBB200930346786902F046FFAD
:10333800FB681A69FB691A44FB681A61FB681A6A18
:10334800FB691A44FB681A623B685A013B691344DB
:1033580003F510639B699BB2BA699A4209D8FB6866
:103368001A6AFB689B699A4203D2FB689B69002B27
:10337800BED1FB689A69FB681B6A9A4211D83B6800
:1033880003F00F03012202FA03F3BB603B6903F564
:1033980000635A6BBB68DB43396901F50061134070
:1033A8004B63002318462037BD4680BD80B588B0E2
:1033B80000AF786039607B681B68FB61FB69BB61A3
:1033C800FB693C3304331B687B613B685A01BB696A
:1033D800134403F530639B683B617B681B69012BD1
:1033E8007BD13B6903F00803002B15D07B69614A48
:1033F800934240F2B9803B6903F40043002B00F08C
:10340800B3803B685A01BB69134403F530631A461D
:103418004FF400439360A7E03B6903F02003002BBF
:1034280009D03B685A01BB69134403F530631A4657
:103438002023936098E03B6903F02803002B40F0B9
:1034480093807B694B4A93420FD93B6903F400434D
:10345800002B0AD03B685A01BB69134403F530635B
:103468001A464FF4004393607EE03A681346DB0047
:1034780013449B0003F51E737A6813440433FB60FE
:10348800FB68DA693B685901BB690B4403F5306393
:103498001B69C3F31203D21AFB681A623B68002B3C
:1034A80014D1FB689B69002B09D17B6818687B687D
:1034B80003F2C4431A46012103F016F906E0FB683B
:1034C8001A69FB681B6A1A44FB681A613B68DBB21D
:1034D8001946786805F0CEFB46E07B69264A934298
:1034E80024D13B6903F40043002B0AD03B685A01FE
:1034F800BB69134403F530631A464FF400439360E5
:1035080032E03B6903F02003002B08D03B685A01E6
:10351800BB69134403F530631A46202393603B6864
:10352800DBB21946786805F0A5FB1DE03B68002B67
:1035380014D179683A681346DB0013449B000B44A6
:1035480003F525731B68002B08D17B6818687B6816
:1035580003F2C4431A46002103F0C6F83B68DBB205
:103568001946786805F086FB002318462037BD46C3
:1035780080BD00BF0A30544F0A31544F80B586B021
:1035880000AF786039607B681B687B617B693B6151
:103598007B693C3304331B68FB603B685A013B6919
:1035A800134403F530639B68BB60FB68154A93427C
:1035B8000ED9BB6803F40043002B09D03B685A01BD
:1035C8003B69134403F530631A464FF40043936094
:1035D800786805F03DFBFB680A4A93420CD97B6882
:1035E8001B69012B08D17B6818687B6803F2C44308
:1035F8001A46012103F078F8002318461837BD460B
:1036080080BD00BF0A30544F80B485B000AF7860E9
:103618000B46FB7013463B807B681B685B6ABB608C
:10362800FB78002B07D13B8819047B681B68BA68B4
:103638000A439A6228E07B681B689B6A1B0CBA687D
:103648001344BB600023FB730DE07B681A68FB7BA7
:1036580040339B0013445B681B0CBA681344BB607F
:10366800FB7B0133FB73FA7BFB78013B9A42ECD37B
:103678003B8818047B681968FB78013BBA680243E9
:1036880040339B000B445A60002318461437BD464C
:103698005DF8047B704780B483B000AF78600B4658
:1036A8007B807B681B687A885A62002318460C372F
:1036B800BD465DF8047B704780B483B000AF786086
:1036C8000B46FB7000BF0C37BD465DF8047B7047A6
:1036D80080B586B000AF78607B68002B01D10123EC
:1036E80067E27B681B6803F00103002B75D0884BE9
:1036F8009B6803F00C03042B0CD0854B9B6803F0EC
:103708000C03082B12D1824B5B6803F48003B3F5DA
:10371800800F0BD17E4B1B6803F40033002B5BD06A
:103728007B685B68002B57D1012342E27B685B68AA
:10373800B3F5803F06D1764B1B68754A43F4803356
:1037480013601DE07B685B68B3F5A02F0CD1704B4C
:103758001B686F4A43F4802313606D4B1B686C4AE7
:1037680043F4803313600BE0694B1B68684A23F409
:1037780080331360664B1B68654A23F4802313600B
:103788007B685B68002B13D0FEF7F0F9386108E01E
:10379800FEF7ECF902463B69D31A642B01D90323DF
:1037A80007E25B4B1B6803F40033002BF0D014E0F6
:1037B800FEF7DCF9386108E0FEF7D8F902463B6904
:1037C800D31A642B01D90323F3E1514B1B6803F48B
:1037D8000033002BF0D100E000BF7B681B6803F0CA
:1037E8000203002B63D04A4B9B6803F00C03002BA9
:1037F8000BD0474B9B6803F00C03082B1CD1444BA0
:103808005B6803F48003002B16D1414B1B6803F05F
:103818000203002B05D07B68DB68012B01D0012354
:10382800C7E13B4B1B6823F0F8027B681B69DB0090
:10383800374913430B603AE07B68DB68002B20D0E4
:10384800344B01221A60FEF791F9386108E0FEF75F
:103858008DF902463B69D31A022B01D90323A8E14B
:103868002B4B1B6803F00203002BF0D0284B1B687E
:1038780023F0F8027B681B69DB00254913430B60C2
:1038880015E0244B00221A60FEF770F9386108E051
:10389800FEF76CF902463B69D31A022B01D90323C0
:1038A80087E11B4B1B6803F00203002BF0D17B68F8
:1038B8001B6803F00803002B36D07B685B69002B7C
:1038C80016D0154B01221A60FEF750F9386108E04E
:1038D800FEF74CF902463B69D31A022B01D90323A0
:1038E80067E10B4B5B6F03F00203002BF0D01BE08A
:1038F800094B00221A60FEF739F938610EE0FEF72D
:1039080035F902463B69D31A022B07D9032350E144
:103918000038024000004742800E4742884B5B6FE8
:1039280003F00203002BEAD17B681B6803F0040351
:10393800002B00F097800023FB75814B1B6C03F074
:103948008053002B0FD10023BB607D4B1B6C7C4A3E
:1039580043F0805313647A4B1B6C03F08053BB60B5
:10396800BB680123FB75774B1B6803F48073002B3E
:1039780018D1744B1B68734A43F480731360FEF7C5
:10398800F5F8386108E0FEF7F1F802463B69D31A0A
:10399800022B01D903230CE16A4B1B6803F48073E3
:1039A800002BF0D07B689B68012B06D1644B1B6F02
:1039B800634A43F0010313671CE07B689B68052B8F
:1039C8000CD15F4B1B6F5E4A43F0040313675C4BDB
:1039D8001B6F5B4A43F0010313670BE0584B1B6FE7
:1039E800574A23F001031367554B1B6F544A23F0C2
:1039F800040313677B689B68002B15D0FEF7B6F8A5
:103A080038610AE0FEF7B2F802463B69D31A41F280
:103A18008832934201D90323CBE0494B1B6F03F053
:103A28000203002BEED014E0FEF7A0F838610AE09C
:103A3800FEF79CF802463B69D31A41F2883293425A
:103A480001D90323B5E03E4B1B6F03F00203002BA3
:103A5800EED1FB7D012B05D1394B1B6C384A23F085
:103A6800805313647B689B69002B00F0A180344B62
:103A78009B6803F00C03082B5CD07B689B69022BC6
:103A880041D1314B00221A60FEF770F8386108E026
:103A9800FEF76CF802463B69D31A022B01D90323BF
:103AA80087E0274B1B6803F00073002BF0D17B687D
:103AB800DA697B681B6A1A437B685B6A9B011A4355
:103AC8007B689B6A5B08013B1B041A437B68DB6AC3
:103AD8001B061B4913434B601B4B01221A60FEF760
:103AE80045F8386108E0FEF741F802463B69D31A09
:103AF800022B01D903235CE0114B1B6803F0007310
:103B0800002BF0D054E0104B00221A60FEF72EF87C
:103B1800386108E0FEF72AF802463B69D31A022BFF
:103B280001D9032345E0064B1B6803F00073002B03
:103B3800F0D13DE07B689B69012B07D1012338E078
:103B48000038024000700040600047421B4B5B6831
:103B5800FB607B689B69012B28D0FB6803F480021B
:103B68007B68DB699A4221D1FB6803F03F027B68DE
:103B78001B6A9A421AD1FA6847F6C07313407A68EA
:103B8800526A9201934211D1FB6803F440327B6878
:103B98009B6A5B08013B1B049A4207D1FB6803F050
:103BA80070627B68DB6A1B069A4201D0012300E041
:103BB800002318461837BD4680BD00BF00380240B4
:103BC80080B584B000AF786039607B68002B01D184
:103BD8000123CCE0684B1B6803F007033A689A425C
:103BE8000CD9654B3A68D2B21A70634B1B6803F064
:103BF80007033A689A4201D00123B8E07B681B6842
:103C080003F00203002B20D07B681B6803F0040339
:103C1800002B05D0594B9B68584A43F4E0539360F6
:103C28007B681B6803F00803002B05D0534B9B6887
:103C3800524A43F460439360504B9B6823F0F00270
:103C48007B689B684D4913438B607B681B6803F056
:103C58000103002B44D07B685B68012B07D1474BDD
:103C68001B6803F40033002B19D101237FE07B6824
:103C78005B68022B03D07B685B68032B07D13F4B43
:103C88001B6803F00073002B09D101236FE03B4B45
:103C98001B6803F00203002B01D1012367E0374BB7
:103CA8009B6823F003027B685B68344913438B608D
:103CB800FDF75CFFF8600AE0FDF758FF0246FB6875
:103CC800D31A41F28832934201D903234FE02B4B98
:103CD8009B6803F00C027B685B689B009A42EBD1FF
:103CE800254B1B6803F007033A689A420CD2224B13
:103CF8003A68D2B21A70204B1B6803F007033A687F
:103D08009A4201D0012332E07B681B6803F0040368
:103D1800002B08D0194B9B6823F4E0527B68DB68C2
:103D2800164913438B607B681B6803F00803002B5C
:103D380009D0124B9B6823F460427B681B69DB0047
:103D48000E4913438B6000F021F802460B4B9B6829
:103D58001B0903F00F030A49CB5C22FA03F3094A53
:103D68001360094B1B681846FDF7BCFE0023184674
:103D78001037BD4680BD00BF003C024000380240FD
:103D8800989200082C000020300000202DE9B04F48
:103D980090B000AF00237B630023FB6300233B63E9
:103DA8000023BB63594B9B6803F00C03082B0DD011
:103DB800082B00F2A180002B02D0042B03D09BE03B
:103DC800534BBB639BE0534BBB6398E04F4B5B6823
:103DD80003F03F037B634D4B5B6803F48003002BC8
:103DE80028D04A4B5B689B0900223B627A623B6A97
:103DF800C3F308000021474B03FB01F2002300FB3B
:103E080003F31344434AA0FB0212FA620A46BA6259
:103E1800FA6A1344FB627B6B0022BB61FA61D7E943
:103E28000623D7E90A01FCF773FD02460B46134641
:103E3800FB6353E0354B5B689B0900223B617A6169
:103E48003B69C3F3080A4FF0000B52465B464FF03C
:103E580000004FF00001590141EAD26150010246C9
:103E68000B46B2EB0A0863EB0B094FF000024FF068
:103E780000034FEA891343EA98634FEA8812B2EBCA
:103E8800080463EB09054FF000024FF00003EB0054
:103E980043EA5473E20014461D4614EB0A033B60E0
:103EA80045EB0B037B604FF000024FF00003D7E9AE
:103EB800004529468B02214643EA915321468A024E
:103EC800104619467B6B0022BB60FA60D7E90223D3
:103ED800FCF71EFD02460B461346FB630B4B5B6863
:103EE8001B0C03F0030301335B003B63FA6B3B6B72
:103EF800B2FBF3F3BB6302E0054BBB6300BFBB6BD4
:103F080018464037BD46BDE8B08F00BF00380240B4
:103F18000024F40040787D0180B400AF034B1B6897
:103F28001846BD465DF8047B704700BF2C00002092
:103F380080B582B000AF78607B68002B01D1012387
:103F480041E07B6893F83D30DBB2002B06D17B68FB
:103F5800002283F83C207868FDF7E8F87B680222A5
:103F680083F83D207B681A687B680433194610463D
:103F780000F05EFC7B68012283F846207B68012202
:103F880083F83E207B68012283F83F207B6801226A
:103F980083F840207B68012283F841207B68012256
:103FA80083F842207B68012283F843207B68012242
:103FB80083F844207B68012283F845207B6801222E
:103FC80083F83D20002318460837BD4680BD000011
:103FD80080B485B000AF78607B6893F83D30DBB281
:103FE800012B01D0012344E07B68022283F83D20A5
:103FF8007B681B68DA687B681B6842F00102DA603C
:104008007B681B681E4A934218D07B681B68B3F113
:10401800804F13D07B681B681A4A93420ED07B6886
:104028001B68194A934209D07B681B68174A934258
:1040380004D07B681B68164A934211D17B681B68C1
:104048009B6803F00703FB60FB68062B10D07B68B6
:104058001B681A687B681B6842F001021A6007E057
:104068007B681B681A687B681B6842F001021A604B
:10407800002318461437BD465DF8047B704700BF1F
:10408800000001400004004000080040000C00400F
:104098000040014080B582B000AF78607B68002B9B
:1040A80001D1012341E07B6893F83D30DBB2002B5E
:1040B80006D17B68002283F83C20786800F039F844
:1040C8007B68022283F83D207B681A687B6804338A
:1040D8001946104600F0ACFB7B68012283F84620A5
:1040E8007B68012283F83E207B68012283F83F2009
:1040F8007B68012283F840207B68012283F84120F5
:104108007B68012283F842207B68012283F84320E0
:104118007B68012283F844207B68012283F84520CC
:104128007B68012283F83D20002318460837BD46E6
:1041380080BD80B483B000AF786000BF0C37BD4647
:104148005DF8047B7047000080B584B000AF7860EC
:1041580039603B68002B09D17B6893F83E30DBB2AD
:10416800012B14BF01230023DBB222E03B68042BA0
:1041780009D17B6893F83F30DBB2012B14BF0123D0
:104188000023DBB215E03B68082B09D17B6893F864
:104198004030DBB2012B14BF01230023DBB208E05F
:1041A8007B6893F84130DBB2012B14BF0123002355
:1041B800DBB2002B01D0012368E03B68002B04D15F
:1041C8007B68022283F83E2013E03B68042B04D16D
:1041D8007B68022283F83F200BE03B68082B04D160
:1041E8007B68022283F8402003E07B68022283F880
:1041F80041207B681B6801223968184600F0BEFD23
:104208007B681B68234A934207D17B681B685A6CFA
:104218007B681B6842F400425A647B681B681D4A2D
:10422800934218D07B681B68B3F1804F13D07B682A
:104238001B68194A93420ED07B681B68174A934241
:1042480009D07B681B68164A934204D07B681B68B8
:10425800144A934211D17B681B689B6803F00703DB
:10426800FB60FB68062B10D07B681B681A687B68AC
:104278001B6842F001021A6007E07B681B681A6835
:104288007B681B6842F001021A6000231846103749
:10429800BD4680BD00000140000400400008004009
:1042A800000C00400040014080B582B000AF78604B
:1042B8007B681B681B6903F00203022B22D17B6811
:1042C8001B68DB6803F00203022B1BD17B681B68A9
:1042D8006FF002021A617B6801221A777B681B68FB
:1042E8009B6903F00303002B03D0786800F081FA80
:1042F80005E0786800F073FA786800F084FA7B6863
:1043080000221A777B681B681B6903F00403042BDF
:1043180022D17B681B68DB6803F00403042B1BD1E4
:104328007B681B686FF004021A617B6802221A77A7
:104338007B681B689B6903F44073002B03D0786883
:1043480000F057FA05E0786800F049FA786800F05C
:104358005AFA7B6800221A777B681B681B6903F08E
:104368000803082B22D17B681B68DB6803F008036D
:10437800082B1BD17B681B686FF008021A617B68E9
:1043880004221A777B681B68DB6903F00303002BA0
:1043980003D0786800F02DFA05E0786800F01FFA7D
:1043A800786800F030FA7B6800221A777B681B680F
:1043B8001B6903F01003102B22D17B681B68DB6894
:1043C80003F01003102B1BD17B681B686FF01002E1
:1043D8001A617B6808221A777B681B68DB6903F41B
:1043E8004073002B03D0786800F003FA05E0786882
:1043F80000F0F5F9786800F006FA7B6800221A7771
:104408007B681B681B6903F00103012B0ED17B68D5
:104418001B68DB6803F00103012B07D17B681B686D
:104428006FF001021A61786800F0CFF97B681B68A9
:104438001B6903F08003802B0ED17B681B68DB6847
:1044480003F08003802B07D17B681B686FF0800224
:104458001A61786800F082FD7B681B681B6903F0AD
:104468004003402B0ED17B681B68DB6803F04003D8
:10447800402B07D17B681B686FF040021A6178688F
:1044880000F0CBF97B681B681B6903F02003202B25
:104498000ED17B681B68DB6803F02003202B07D153
:1044A8007B681B686FF020021A61786800F04CFD89
:1044B80000BF0837BD4680BD80B586B000AFF86044
:1044C800B9607A600023FB75FB6893F83C30012BD8
:1044D80001D10223AEE0FB68012283F83C207B680F
:1044E8000C2B00F29F8001A252F823F02945000806
:1044F8002D4600082D4600082D460008694500088D
:104508002D4600082D4600082D460008AB4500083A
:104518002D4600082D4600082D460008EB450008EA
:10452800FB681B68B968184600F002FAFB681B684C
:104538009A69FB681B6842F008029A61FB681B686D
:104548009A69FB681B6822F004029A61FB681B6881
:104558009969BB681A69FB681B680A439A6164E039
:10456800FB681B68B968184600F048FAFB681B68C6
:104578009A69FB681B6842F400629A61FB681B68D1
:104588009A69FB681B6822F480629A61FB681B6861
:104598009969BB681B691A02FB681B680A439A6120
:1045A80043E0FB681B68B968184600F093FAFB689B
:1045B8001B68DA69FB681B6842F00802DA61FB686D
:1045C8001B68DA69FB681B6822F00402DA61FB6881
:1045D8001B68D969BB681A69FB681B680A43DA61FA
:1045E80023E0FB681B68B968184600F0DDFAFB6831
:1045F8001B68DA69FB681B6842F40062DA61FB68D1
:104608001B68DA69FB681B6822F48062DA61FB6860
:104618001B68D969BB681B691A02FB681B680A43D7
:10462800DA6102E00123FB7500BFFB68002283F812
:104638003C20FB7D18461837BD4680BD80B584B048
:1046480000AF786039600023FB737B6893F83C30D7
:10465800012B01D10223B4E07B68012283F83C20BE
:104668007B68022283F83D207B681B689B68BB60DF
:10467800BB6823F07703BB60BB6823F47F43BB6050
:104688007B681B68BA689A603B681B68B3F5005F73
:104698003ED0B3F5005F00F28780B3F5805F00F08D
:1046A8008680B3F5805F7FD8702B1AD0702B7BD8AB
:1046B800602B50D0602B77D8502B3CD0502B73D820
:1046C800402B58D0402B6FD8302B64D0302B6BD870
:1046D800202B60D0202B67D8002B5CD0102B5AD011
:1046E80062E07B6818683B6899683B685A683B6871
:1046F800DB6800F023FB7B681B689B68BB60BB68BA
:1047080043F07703BB607B681B68BA689A604FE028
:104718007B6818683B6899683B685A683B68DB683F
:1047280000F00CFB7B681B689A687B681B6842F486
:1047380080429A603CE07B6818683B6859683B682F
:10474800DB681A4600F080FA7B681B68502118461F
:1047580000F0D9FA2CE07B6818683B6859683B6818
:10476800DB681A4600F09FFA7B681B6860211846D0
:1047780000F0C9FA1CE07B6818683B6859683B6818
:10478800DB681A4600F060FA7B681B68402118460F
:1047980000F0B9FA0CE07B681A683B681B68194698
:1047A800104600F0B0FA03E00123FB7300E000BFFD
:1047B8007B68012283F83D207B68002283F83C2037
:1047C800FB7B18461037BD4680BD80B483B000AF70
:1047D800786000BF0C37BD465DF8047B704780B435
:1047E80083B000AF786000BF0C37BD465DF8047B2E
:1047F800704780B483B000AF786000BF0C37BD4607
:104808005DF8047B704780B483B000AF786000BF68
:104818000C37BD465DF8047B704780B483B000AFA9
:10482800786000BF0C37BD465DF8047B7047000018
:1048380080B485B000AF786039607B681B68FB6026
:104848007B68344A93420FD07B68B3F1804F0BD01A
:104858007B68314A934207D07B68304A934203D041
:104868007B682F4A934208D1FB6823F07003FB60F2
:104878003B685B68FA681343FB607B68254A934290
:104888001BD07B68B3F1804F17D07B68224A9342D4
:1048980013D07B68214A93420FD07B68204A934209
:1048A8000BD07B681F4A934207D07B681E4A93420D
:1048B80003D07B681D4A934208D1FB6823F44073F8
:1048C800FB603B68DB68FA681343FB60FB6823F016
:1048D80080023B685B691343FB607B68FA681A6077
:1048E8003B689A687B68DA623B681A687B689A62F8
:1048F8007B68084A934203D13B681A697B681A634C
:104908007B6801225A6100BF1437BD465DF8047BFD
:10491800704700BF0000014000040040000800404C
:10492800000C0040004001400044014000480140A4
:1049380080B487B000AF786039607B681B6A23F069
:1049480001027B681A627B681B6A7B617B685B6813
:104958003B617B689B69FB60FB6823F07003FB602D
:10496800FB6823F00303FB603B681B68FA6813438A
:10497800FB607B6923F002037B613B689B687A6973
:1049880013437B617B681C4A93420CD17B6923F0FB
:1049980008037B613B68DB687A6913437B617B6949
:1049A80023F004037B617B68134A934211D13B696E
:1049B80023F480733B613B6923F400733B613B68DC
:1049C8005B693A6913433B613B689B693A691343E6
:1049D8003B617B683A695A607B68FA689A613B6810
:1049E8005A687B685A637B687A691A6200BF1C3709
:1049F800BD465DF8047B70470000014080B487B075
:104A080000AF786039607B681B6A23F010027B680E
:104A18001A627B681B6A7B617B685B683B617B68A9
:104A28009B69FB60FB6823F4E043FB60FB6823F4AD
:104A38004073FB603B681B681B02FA681343FB600A
:104A48007B6923F020037B613B689B681B017A69C3
:104A580013437B617B681E4A93420DD17B6923F027
:104A680080037B613B68DB681B017A6913437B61C8
:104A78007B6923F040037B617B68154A934213D11D
:104A88003B6923F480633B613B6923F400633B612A
:104A98003B685B699B003A6913433B613B689B69D0
:104AA8009B003A6913433B617B683A695A607B68AB
:104AB800FA689A613B685A687B689A637B687A6986
:104AC8001A6200BF1C37BD465DF8047B704700BF03
:104AD8000000014080B487B000AF786039607B681F
:104AE8001B6A23F480727B681A627B681B6A7B618D
:104AF8007B685B683B617B68DB69FB60FB6823F074
:104B08007003FB60FB6823F00303FB603B681B68D2
:104B1800FA681343FB607B6923F400737B613B688D
:104B28009B681B027A6913437B617B681D4A934229
:104B38000DD17B6923F400637B613B68DB681B0252
:104B48007A6913437B617B6923F480637B617B68AB
:104B5800144A934213D13B6923F480533B613B6968
:104B680023F400533B613B685B691B013A691343BB
:104B78003B613B689B691B013A6913433B617B6856
:104B88003A695A607B68FA68DA613B685A687B68F8
:104B9800DA637B687A691A6200BF1C37BD465DF824
:104BA800047B70470000014080B487B000AF786094
:104BB80039607B681B6A23F480527B681A627B68C1
:104BC8001B6A3B617B685B687B617B68DB69FB60B8
:104BD800FB6823F4E043FB60FB6823F44073FB604D
:104BE8003B681B681B02FA681343FB603B6923F4AC
:104BF80000533B613B689B681B033A6913433B6165
:104C08007B68104A934209D17B6923F480437B6116
:104C18003B685B699B017A6913437B617B687A69AE
:104C28005A607B68FA68DA613B685A687B681A647C
:104C38007B683A691A6200BF1C37BD465DF8047B81
:104C4800704700BF0000014080B487B000AFF86033
:104C5800B9607A60FB681B6A7B61FB681B6A23F09A
:104C68000102FB681A62FB689B693B613B6923F0A0
:104C7800F0033B617B681B013A6913433B617B6925
:104C880023F00A037B617A69BB6813437B61FB6885
:104C98003A699A61FB687A691A6200BF1C37BD4697
:104CA8005DF8047B704780B487B000AFF860B960E6
:104CB8007A60FB681B6A23F01002FB681A62FB68C3
:104CC8009B697B61FB681B6A3B617B6923F47043CA
:104CD8007B617B681B037A6913437B613B6923F023
:104CE800A0033B61BB681B013A6913433B61FB6846
:104CF8007A699A61FB683A691A6200BF1C37BD4637
:104D08005DF8047B704780B485B000AF7860396087
:104D18007B689B68FB60FB6823F07003FB603A6864
:104D2800FB68134343F00703FB607B68FA689A60EB
:104D380000BF1437BD465DF8047B704780B487B068
:104D480000AFF860B9607A603B60FB689B687B6184
:104D58007B6923F47F437B613B681A027B681A43B3
:104D6800BB6813437A6913437B61FB687A699A606D
:104D780000BF1C37BD465DF8047B704780B487B020
:104D880000AFF860B9607A60BB6803F01F030122C6
:104D980002FA03F37B61FB681A6A7B69DB431A40FA
:104DA800FB681A62FB681A6ABB6803F01F0379681C
:104DB80001FA03F31A43FB681A6200BF1C37BD46A9
:104DC8005DF8047B7047000080B485B000AF786060
:104DD80039607B6893F83C30012B01D1022350E005
:104DE8007B68012283F83C207B68022283F83D20FF
:104DF8007B681B685B68FB607B681B689B68BB60A3
:104E0800FB6823F07003FB603B681B68FA68134378
:104E1800FB607B681B68FA685A607B681B681C4AE1
:104E2800934218D07B681B68B3F1804F13D07B681E
:104E38001B68184A93420ED07B681B68164A934237
:104E480009D07B681B68154A934204D07B681B68AD
:104E5800134A93420CD1BB6823F08003BB603B68C4
:104E68005B68BA681343BB607B681B68BA689A6062
:104E78007B68012283F83D207B68002283F83C2070
:104E8800002318461437BD465DF8047B704700BF01
:104E9800000001400004004000080040000C0040F1
:104EA8000040014080B485B000AF786039600023CD
:104EB800FB607B6893F83C30012B01D102233DE075
:104EC8007B68012283F83C20FB6823F0FF023B68E3
:104ED800DB681343FB60FB6823F440723B689B6804
:104EE8001343FB60FB6823F480623B685B681343F1
:104EF800FB60FB6823F400623B681B681343FB609C
:104F0800FB6823F480523B681B691343FB60FB6812
:104F180023F400523B685B691343FB60FB6823F48E
:104F280080423B68DB691343FB607B681B68FA6857
:104F38005A647B68002283F83C2000231846143703
:104F4800BD465DF8047B704780B483B000AF7860DD
:104F580000BF0C37BD465DF8047B704780B483B052
:104F680000AF786000BF0C37BD465DF8047B704722
:104F780084B080B584B000AF786007F11C0080E889
:104F88000E003B6B012B22D17B689B6B23F4803294
:104F98007B689A637B68DB6823F4840323F040030F
:104FA8007A68D3607B68DB6823F440127B68DA6038
:104FB800FB6C012B05D17B68DB6843F480127B68AE
:104FC800DA60786801F0EEFB0346FB731AE07B6851
:104FD800DB6843F040027B68DA60786801F0E2FB46
:104FE8000346FB733B6C002B06D17B689B6B43F439
:104FF80080327B689A6305E07B689B6B23F4803280
:105008007B689A63BB6A012B0BD17B689B6843F072
:1050180006027B689A607B689B6843F020027B6885
:105028009A60FB7B18461037BD46BDE8804004B047
:105038007047000080B487B000AFF860B9601346CD
:10504800FB71FB79022B65D1BB68414A934206D9B3
:10505800BB68404A934202D20F237B6162E0BB687F
:105068003C4A934206D3BB683B4A934202D20E2382
:105078007B6157E0BB68384A934206D3BB68374A1E
:10508800934202D20D237B614CE0BB68334A9342C2
:1050980006D3BB68324A934202D80C237B6141E0B5
:1050A800BB682F4A934206D9BB682E4A934202D85E
:1050B8000B237B6136E0BB682A4A934206D9BB685A
:1050C800294A934202D80A237B612BE0BB68264A0F
:1050D800934206D9BB68254A934202D209237B61D1
:1050E80020E0BB68214A934206D3BB68204A93421A
:1050F80002D808237B6115E0BB681D4A934206D994
:10510800BB681C4A934202D207237B610AE006234C
:105118007B6107E0FB79002B02D109237B6101E069
:1051280009237B61FB68DB6823F47052FB68DA6053
:10513800FB68DA687B699B0203F470531A43FB68C7
:10514800DA60002318461C37BD465DF8047B7047BB
:10515800BFACD800C0E1E4000024F400807306016D
:105168009F491A01FF2C31013FA44C0100366E0102
:105178001FABA6010048E80180B483B000AF786097
:105188007B689B6843F001027B689A60002318469D
:105198000C37BD465DF8047B704780B483B000AF20
:1051A80078607B689B6823F001027B689A60002323
:1051B80018460C37BD465DF8047B704780B584B04F
:1051C80000AF78600B46FB700023FB607B68DB68F0
:1051D80023F0C0427B68DA60FB78012B15D17B682D
:1051E800DB6843F000527B68DA600120FCF7CAFCF8
:1051F800FB680133FB60786801F045FA0346012B30
:105208001ED0FB68312BF0D91AE0FB78002B15D1A2
:105218007B68DB6843F080427B68DA600120FCF73A
:10522800B1FCFB680133FB60786801F02CFA034697
:10523800002B05D0FB68312BF0D901E0012305E0F4
:10524800FB68322B01D1012300E0002318461037F8
:10525800BD4680BD84B080B586B000AF786007F1E8
:10526800240080E80E000023FB757B68FB600023A8
:105278003B6109E07A683B6940339B001344002294
:105288005A603B6901333B613B690E2BF2D9FB6CD9
:10529800002B1CD1FB6803F500635B68FA6802F514
:1052A800006243F0020353607B689B6B43F4001277
:1052B8007B689A637B689B6B23F400227B689A6304
:1052C8007B689B6B23F480227B689A630BE07B6886
:1052D8009B6B23F400127B689A637B689B6B43F497
:1052E80000227B689A63FB6803F560631A46002313
:1052F8001360FB6803F500631946FB6803F5006358
:105308001A460B681360BB6B012B0CD1FB6A002B90
:1053180004D10021786800F065F908E00121786877
:1053280000F060F903E00321786800F05BF91021D0
:10533800786800F0F3F80346002B01D00123FB75D1
:10534800786800F01FF90346002B01D00123FB7594
:10535800FB6803F500631A4600231361FB6803F535
:1053680000631A4600235361FB6803F500631A467D
:105378000023D36100233B6143E03B695A01FB688A
:10538800134403F510631B6803F00043B3F1004FA7
:1053980018D13B69002B0AD13B695A01FB681344B9
:1053A80003F510631A464FF00063136013E03B697E
:1053B8005A01FB68134403F510631A464FF09043F3
:1053C800136008E03B695A01FB68134403F5106356
:1053D8001A46002313603B695A01FB68134403F51E
:1053E80010631A46002313613B695A01FB68134492
:1053F80003F510631A464FF67F3393603B69013318
:105408003B617B6A3A699A42B7D300233B6143E028
:105418003B695A01FB68134403F530631B6803F0CA
:105428000043B3F1004F18D13B69002B0AD13B6907
:105438005A01FB68134403F530631A464FF00063C2
:10544800136013E03B695A01FB68134403F53063AA
:105458001A464FF09043136008E03B695A01FB6815
:10546800134403F530631A46002313603B695A015D
:10547800FB68134403F530631A46002313613B6944
:105488005A01FB68134403F530631A464FF67F331D
:1054980093603B6901333B617B6A3A699A42B7D3AF
:1054A800FB6803F500631B69FA6802F5006223F4E0
:1054B800807313617B6800229A617B686FF0804279
:1054C8005A613B6B002B05D17B689B6943F0100246
:1054D8007B689A617B689A690F4B13437A6893617A
:1054E800FB6B002B05D07B689B6943F008027B6847
:1054F8009A61FB6C012B07D17B689B6943F0804361
:1055080043F004037A689361FB7D18461837BD465B
:10551800BDE8804004B0704700383C8080B485B056
:1055280000AF786039600023FB60FB680133FB60E3
:10553800FB68134A934201D903231BE07B681B696C
:10554800002BF2DA0023FB603B689B0143F020024A
:105558007B681A61FB680133FB60FB68084A934269
:1055680001D9032306E07B681B6903F02003202B85
:10557800F0D0002318461437BD465DF8047B704709
:10558800400D030080B485B000AF78600023FB6055
:10559800FB680133FB60FB68114A934201D903237E
:1055A80018E07B681B69002BF2DA0023FB607B683C
:1055B80010221A61FB680133FB60FB68084A9342BA
:1055C80001D9032306E07B681B6903F01003102B45
:1055D800F0D0002318461437BD465DF8047B7047A9
:1055E800400D030080B485B000AF78600B46FB70B7
:1055F8007B68FB60FB6803F500631A68FB78F96851
:1056080001F5006113430B60002318461437BD46AB
:105618005DF8047B704780B487B000AF78607B6822
:105628003B613B6903F500639B6803F00603FB607D
:10563800FB68002B02D10023FB750AE0FB68022BF4
:1056480002D0FB68062B02D10223FB7501E00F2371
:10565800FB75FB7D18461C37BD465DF8047B70471B
:1056680080B485B000AF786039607B68FB603B68C8
:105678001B78BB603B685B78012B3AD1FB6803F56C
:105688000063DA693B681B7803F00F03012101FA14
:1056980003F39BB2F96801F500611343CB61BB6862
:1056A8005A01FB68134403F510631B6803F40043B5
:1056B800002B55D1BB685A01FB68134403F51063EE
:1056C8001A683B68DB68C3F30A013B681B799B04D3
:1056D8001943BB689B050B431343BA685101FA6829
:1056E8000A4402F5106243F0805343F40043136008
:1056F80036E0FB6803F50063DA693B681B7803F062
:105708000F03012101FA03F31B04F96801F5006195
:105718001343CB61BB685A01FB68134403F530633C
:105728001B6803F40043002B1AD1BB685A01FB68BD
:10573800134403F530631A683B68DB68C3F30A0156
:105748003B681B799B040B431343BA685101FA6801
:105758000A4402F5306243F0805343F40043136077
:10576800002318461437BD465DF8047B70470000D7
:1057780080B485B000AF786039607B68FB603B68B7
:105788001B78BB603B685B78012B61D1BB685A0111
:10579800FB68134403F510631B6803F00043B3F17F
:1057A800004F1FD1BB685A01FB68134403F510630F
:1057B8001B68BA685101FA680A4402F5106243F09E
:1057C80000631360BB685A01FB68134403F5106358
:1057D8001B68BA685101FA680A4402F5106243F07E
:1057E80080431360FB6803F50063DA6B3B681B7842
:1057F80003F00F03012101FA03F39BB2DB43F968BD
:1058080001F500611340CB63FB6803F50063DA69B7
:105818003B681B7803F00F03012101FA03F39BB2E5
:10582800DB43F96801F500611340CB61BB685A019D
:10583800FB68134403F510631A68BB685901FB68D9
:105848000B4403F510631946354B13400B6060E0B9
:10585800BB685A01FB68134403F530631B6803F007
:105868000043B3F1004F1FD1BB685A01FB681344D2
:1058780003F530631B68BA685101FA680A4402F5F7
:10588800306243F000631360BB685A01FB6813443D
:1058980003F530631B68BA685101FA680A4402F5D7
:1058A800306243F080431360FB6803F50063DA6BF2
:1058B8003B681B7803F00F03012101FA03F31B0473
:1058C800DB43F96801F500611340CB63FB6803F51E
:1058D8000063DA693B681B7803F00F03012101FAC2
:1058E80003F31B04DB43F96801F500611340CB6146
:1058F800BB685A01FB68134403F530631A68BB6838
:105908005901FB680B4403F530631946054B1340F6
:105918000B60002318461437BD465DF8047B7047BA
:10592800007833EC0078F3EF80B58AB002AFF86006
:10593800B9601346FB71FB68FB61BB681B78BB61F0
:10594800BB685B78012B40F05C81BB689B69002BCE
:1059580032D1BB695A01FB69134403F510631B6913
:10596800BA695101FA690A4402F5106223F0FF533B
:1059780023F4C0131361BB695A01FB69134403F58F
:1059880010631B69BA695101FA690A4402F5106289
:1059980043F400231361BB695A01FB69134403F5FF
:1059A80010631B69BA695101FA690A4402F5106269
:1059B800DB0CDB04136174E0BB695A01FB69134417
:1059C80003F510631B69BA695101FA690A4402F5C3
:1059D8001062DB0CDB041361BB695A01FB691344D9
:1059E80003F510631B69BA695101FA690A4402F5A3
:1059F800106223F0FF5323F4C0131361BB695A01EB
:105A0800FB69134403F510631A69BB689969BB689D
:105A1800DB680B44591EBB68DB68B1FBF3F3D904A0
:105A28009D4B0B40B9694801F969014401F51061C2
:105A380013430B61BB695A01FB69134403F51063F7
:105A48001A69BB689B69C3F31203B9694801F9690C
:105A5800014401F5106113430B61BB681B79012BED
:105A68001FD1BB695A01FB69134403F510631B6915
:105A7800BA695101FA690A4402F5106223F0C04379
:105A88001361BB695A01FB69134403F510631B6971
:105A9800BA695101FA690A4402F5106243F00053E9
:105AA8001361FB79012B4BD1BB685B69002B09D0D3
:105AB800BB695A01FB69134403F510631A46BB68B6
:105AC8005B695361BB681B79012B28D1FB6903F51E
