:020000040800F2
:100000000000012061290008251B00082B1B0008A7
:10001000311B0008371B00083D1B000800000000D2
:10002000000000000000000000000000431B00086A
:10003000511B0008000000005F1B00086D1B00083A
:10004000B1290008B1290008B1290008B129000828
:10005000B1290008B1290008791B0008B12900085E
:10006000151C0008B1290008B11C0008B1290008BE
:10007000B1290008B1290008B1290008B1290008F8
:10008000B1290008B1290008B129000800000000CA
:10009000000000000000000000000000B12900087E
:1000A000B1290008B1290008B1290008B1290008C8
:1000B000B12900084D1D0008B11E0008B129000833
:1000C000B1290008B1290008B1290008B1290008A8
:1000D000B1290008B1290008B1290008000000007A
:1000E000B1290008B1290008B1290008000000006A
:1000F000000000000000000000000000B12900081E
:1001000000000000B1290008B1290008B129000849
:1001100000000000000000000000000000000000DF
:10012000B1290008B1290008B1290008B129000847
:10013000B1290008000000000000000000000000DD
:10014000000000000000000000000000C9250008B9
:10015000B1290008B1290008B1290008B129000817
:10016000B1290008B12900080000000000000000CB
:10017000000000000000000000000000000000007F
:1001800000000000B129000800000000000000008D
:04019000B129000889
:1001980010B5054C237833B9044B13B10448AFF3B9
:1001A80000800123237010BD9C0100200000000086
:1001B800B4BC000808B5034B1BB103490348AFF3AF
:1001C800008008BD00000000A0010020B4BC0008A9
:1001D80010F8012B11F8013B012A28BF9A42F7D0E9
:1001E800D01A704781F0004102E000BF83F000435D
:1001F80030B54FEA41044FEA430594EA050F08BFBA
:1002080090EA020F1FBF54EA000C55EA020C7FEA7D
:10021800645C7FEA655C00F0E2804FEA5454D4EBFA
:100228005555B8BF6D420CDD2C4480EA020281EAC4
:10023800030382EA000083EA010180EA020281EAFC
:100248000303362D88BF30BD11F0004F4FEA01314E
:100258004FF4801C4CEA113102D0404261EB41015D
:1002680013F0004F4FEA03334CEA133302D05242E3
:1002780063EB430394EA050F00F0A780A4F101049F
:10028800D5F1200E0DDB02FA0EFC22FA05F28018D9
:1002980041F1000103FA0EF2801843FA05F35941BF
:1002A8000EE0A5F120050EF1200E012A03FA0EFC3E
:1002B80028BF4CF0020C43FA05F3C01851EBE37168
:1002C80001F0004507D54FF0000EDCF1000C7EEB85
:1002D80000006EEB0101B1F5801F1BD3B1F5001FC3
:1002E8000CD349085FEA30004FEA3C0C04F10104E2
:1002F8004FEA445212F5800F80F09A80BCF1004F0B
:1003080008BF5FEA500C50F1000041EB045141EA8C
:10031800050130BD5FEA4C0C404141EB0101013C55
:1003280028BFB1F5801FE9D291F0000F04BF014644
:100338000020B1FA81F308BF2033A3F10B03B3F116
:1003480020020CDA0C3208DD02F1140CC2F10C02A6
:1003580001FA0CF021FA02F10CE002F11402D8BF04
:10036800C2F1200C01FA02F120FA0CFCDCBF41EAD0
:100378000C019040E41AA2BF01EB0451294330BD9F
:100388006FEA04041F3C1CDA0C340EDC04F114047C
:10039800C4F1200220FA04F001FA02F340EA030053
:1003A80021FA04F345EA030130BDC4F10C04C4F199
:1003B800200220FA02F001FA04F340EA0300294679
:1003C80030BD21FA04F0294630BD94F0000F83F4C3
:1003D800801306BF81F480110134013D4EE77FEAA6
:1003E800645C18BF7FEA655C29D094EA050F08BFF2
:1003F80090EA020F05D054EA000C04BF19461046D3
:1004080030BD91EA030F1EBF0021002030BD5FEA16
:10041800545C05D14000494128BF41F0004130BD3E
:1004280014F580043CBF01F5801130BD01F0004592
:1004380045F0FE4141F470014FF0000030BD7FEA05
:10044800645C1ABF194610467FEA655C1CBF0B4600
:10045800024650EA013406BF52EA033591EA030F17
:1004680041F4002130BD00BF90F0000F04BF00210F
:10047800704730B54FF4806404F132044FF0000542
:100488004FF0000150E700BF90F0000F04BF0021BB
:10049800704730B54FF4806404F1320410F0004521
:1004A80048BF40424FF000013EE700BF42004FEA1C
:1004B800E2014FEA31014FEA02701FBF12F07F4399
:1004C80093F07F4F81F06051704732F07F4208BF50
:1004D800704793F07F4F04BF41F40021704730B557
:1004E8004FF4607401F0004521F000411CE700BFA3
:1004F80050EA010208BF704730B54FF000050AE026
:1005080050EA010208BF704730B511F0004502D526
:10051800404261EB41014FF4806404F132045FEA28
:10052800915C3FF4D8AE4FF003025FEADC0C18BFD1
:1005380003325FEADC0C18BF033202EBDC02C2F1C3
:10054800200300FA03FC20FA02F001FA03FE40EA55
:100558000E0021FA02F11444BDE600BF70B54FF059
:10056800FF0C4CF4E06C1CEA11541DBF1CEA135537
:1005780094EA0C0F95EA0C0F00F0DEF82C4481EA9F
:10058800030621EA4C5123EA4C5350EA013518BFBF
:1005980052EA033541F4801143F4801338D0A0FBAC
:1005A80002CE4FF00005E1FB02E506F00042E0FB59
:1005B80003E54FF00006E1FB03569CF0000F18BF5F
:1005C8004EF0010EA4F1FF04B6F5007F64F5407407
:1005D80004D25FEA4E0E6D4146EB060642EAC6219A
:1005E80041EA55514FEAC52040EA5E504FEACE2E07
:1005F800B4F1FD0C88BFBCF5E06F1ED8BEF1004F0A
:1006080008BF5FEA500E50F1000041EB045170BD85
:1006180006F0004646EA010140EA020081EA0301C9
:10062800B4EB5C04C2BFD4EB0C0541EA045170BDC5
:1006380041F480114FF0000E013C00F3AB8014F13F
:10064800360FDEBF002001F0004170BDC4F1000488
:10065800203C35DA0C341BDC04F11404C4F1200509
:1006680000FA05F320FA04F001FA05F240EA020064
:1006780001F0004221F0004110EBD37021FA04F69A
:1006880042EB06015EEA430E08BF20EAD37070BD54
:10069800C4F10C04C4F1200500FA04F320FA05F0B3
:1006A80001FA04F240EA020001F0004110EBD370B5
:1006B80041F100015EEA430E08BF20EAD37070BD25
:1006C800C4F1200500FA05F24EEA020E20FA04F3FE
:1006D80001FA05F243EA020321FA04F001F00041AD
:1006E80021FA04F220EA020000EBD3705EEA430E1E
:1006F80008BF20EAD37070BD94F0000F0FD101F04D
:100708000046400041EB010111F4801F08BF013C85
:10071800F7D041EA060195F0000F18BF704703F0C3
:100728000046520043EB030313F4801F08BF013D4A
:10073800F7D043EA0603704794EA0C0F0CEA135506
:1007480018BF95EA0C0F0CD050EA410618BF52EAC0
:100758004306D1D181EA030101F000414FF00000C6
:1007680070BD50EA410606BF1046194652EA4306D4
:1007780019D094EA0C0F02D150EA013613D195EA48
:100788000C0F05D152EA03361CBF104619460AD190
:1007980081EA030101F0004141F0FE4141F470019A
:1007A8004FF0000070BD41F0FE4141F4780170BD8A
:1007B80070B54FF0FF0C4CF4E06C1CEA11541DBFEF
:1007C8001CEA135594EA0C0F95EA0C0F00F0A7F8F1
:1007D800A4EB050481EA030E52EA03354FEA01311E
:1007E80000F088804FEA03334FF0805545EA131331
:1007F80043EA12634FEA022245EA111545EA1065F9
:100808004FEA00260EF000419D4208BF964244F18F
:10081800FD0404F5407402D25B084FEA3202B61AAE
:1008280065EB03055B084FEA32024FF480104FF482
:10083800002CB6EB020E75EB030E22BFB61A7546F6
:1008480040EA0C005B084FEA3202B6EB020E75EB89
:10085800030E22BFB61A754640EA5C005B084FEAF1
:100868003202B6EB020E75EB030E22BFB61A7546BE
:1008780040EA9C005B084FEA3202B6EB020E75EBC9
:10088800030E22BFB61A754640EADC0055EA060E8A
:1008980018D04FEA051545EA16754FEA06164FEACD
:1008A800C30343EA52734FEAC2025FEA1C1CC0D179
:1008B80011F4801F0BD141EA00014FF000004FF006
:1008C800004CB6E711F4801F04BF01430020B4F1C7
:1008D800FD0C88BFBCF5E06F3FF6AFAEB5EB030C7F
:1008E80004BFB6EB020C5FEA500C50F1000041EB7C
:1008F800045170BD0EF0004E4EEA113114EB5C0449
:10090800C2BFD4EB0C0541EA045170BD41F480111B
:100918004FF0000E013C90E645EA060E8DE60CEA23
:10092800135594EA0C0F08BF95EA0C0F3FF43BAF40
:1009380094EA0C0F0AD150EA01347FF434AF95EAF7
:100948000C0F7FF425AF104619462CE795EA0C0FDB
:1009580006D152EA03353FF4FDAE1046194622E7A8
:1009680050EA410618BF52EA43067FF4C5AE50EA82
:1009780041047FF40DAF52EA43057FF4EBAE12E772
:100988004FF0FF3C06E000BF4FF0010C02E000BF53
:100998004FF0010C4DF804CD4FEA410C7FEA6C5C36
:1009A8004FEA430C18BF7FEA6C5C1BD001B050EAD9
:1009B800410C0CBF52EA430C91EA030F02BF90EAC4
:1009C800020F0020704710F1000F91EA030F58BF83
:1009D800994208BF90422CBFD8176FEAE37040F0E5
:1009E800010070474FEA410C7FEA6C5C02D150EA83
:1009F800013C07D14FEA430C7FEA6C5CD6D152EA3E
:100A0800033CD3D05DF8040B704700BF8446104602
:100A180062468C461946634600E000BF01B5FFF701
:100A2800B7FF002848BF10F1000F01BD4DF808EDD1
:100A3800FFF7F4FF0CBF012000205DF808FB00BFA2
:100A48004DF808EDFFF7EAFF34BF012000205DF8FC
:100A580008FB00BF4DF808EDFFF7E0FF94BF012049
:100A680000205DF808FB00BF4DF808EDFFF7CEFF4A
:100A780094BF012000205DF808FB00BF4DF808ED89
:100A8800FFF7C4FF34BF012000205DF808FB00BF5A
:100A98004FEA410C7FEA6C5C02D150EA013C0AD172
:100AA8004FEA430C7FEA6C5C02D152EA033C02D164
:100AB8004FF0000070474FF0010070474FEA4102C5
:100AC80012F5001215D211D56FF47873B3EB625298
:100AD80012D94FEAC12343F0004343EA505311F0BF
:100AE800004F23FA02F018BF404270474FF0000051
:100AF800704750EA013005D111F0004008BF6FF08F
:100B0800004070474FF00000704700BF4FEA4102B5
:100B1800B2F1E04324BFB3F5001CDCF1FE5C0DD953
:100B280001F0004C4FEAC0024CEA5070B2F1004F9D
:100B380040EB830008BF20F00100704711F0804FA0
:100B480021D113F13872BCBF01F00040704741F465
:100B580080114FEA5252C2F11802C2F1200C10FA69
:100B68000CF320FA02F018BF40F001004FEAC1234D
:100B78004FEAD32303FA0CFC40EA0C0023FA02F3F1
:100B88004FEA4303CCE77FEA625307D150EA0133C7
:100B98001EBF4FF0FE4040F44000704701F0004097
:100BA80040F0FE4040F40000704700BF53B94AB916
:100BB800002908BF00281CBF4FF0FF314FF0FF305D
:100BC80000F074B9ADF1080C6DE904CE00F006F838
:100BD800DDF804E0DDE9022304B070472DE9F047B1
:100BE800089D04468E46002B4DD18A42944669D909
:100BF800B2FA82F252B101FA02F3C2F1200120FAEC
:100C080001F10CFA02FC41EA030E94404FEA1C4839
:100C1800210CBEFBF8F61FFA8CF708FB16E341EA35
:100C2800034306FB07F199420AD91CEB030306F1BB
:100C3800FF3080F01F81994240F21C81023E6344DC
:100C48005B1AA4B2B3FBF8F008FB103344EA034480
:100C580000FB07F7A7420AD91CEB040400F1FF3395
:100C680080F00A81A74240F207816444023840EAD2
:100C78000640E41B00261DB1D4400023C5E900430B
:100C88003146BDE8F0878B4209D9002D00F0EF808E
:100C98000026C5E9000130463146BDE8F087B3FAC1
:100CA80083F6002E4AD18B4202D3824200F2F980A9
:100CB800841A61EB030301209E46002DE0D0C5E9AC
:100CC800004EDDE702B9FFDEB2FA82F2002A40F0F8
:100CD8009280A1EB0C014FEA1C471FFA8CFE0126FB
:100CE800200CB1FBF7F307FB131140EA01410EFB9F
:100CF80003F0884208D91CEB010103F1FF3802D246
:100D0800884200F2CB804346091AA4B2B1FBF7F03F
:100D180007FB101144EA01440EFB00FEA64508D962
:100D28001CEB040400F1FF3102D2A64500F2BB809F
:100D38000846A4EB0E0440EA03409CE7C6F12007EE
:100D4800B34022FA07FC4CEA030C20FA07F401FA34
:100D580006F31C43F9404FEA1C4900FA06F3B1FBBD
:100D6800F9F8200C1FFA8CFE09FB181140EA014122
:100D780008FB0EF0884202FA06F20BD91CEB0101BF
:100D880008F1FF3A80F08880884240F28580A8F117
:100D980002086144091AA4B2B1FBF9F009FB101169
:100DA80044EA014100FB0EFE8E4508D91CEB010107
:100DB80000F1FF346CD28E456AD90238614440EAAA
:100DC8000840A0FB0294A1EB0E01A142C846A6462A
:100DD80056D353D05DB1B3EB080261EB0E0101FAB3
:100DE80007F722FA06F3F1401F43C5E90071002610
:100DF8003146BDE8F087C2F12003D8400CFA02FC66
:100E080021FA03F3914001434FEA1C471FFA8CFE75
:100E1800B3FBF7F007FB10360B0C43EA064300FB65
:100E28000EF69E4204FA02F408D91CEB030300F103
:100E3800FF382FD29E422DD9023863449B1B89B2BA
:100E4800B3FBF7F607FB163341EA034106FB0EF343
:100E58008B4208D91CEB010106F1FF3816D28B42F0
:100E680014D9023E6144C91A46EA004638E72E46BC
:100E7800284605E70646E3E61846F8E64B45A9D2B4
:100E8800B9EB020864EB0C0E0138A3E74646EAE723
:100E9800204694E74046D1E7D0467BE7023B6144D1
:100EA80032E7304609E76444023842E7704700BF3A
:100EB80080B500AF01F07AFD00F032F800F0EEF9ED
:100EC80008F0F2FB00F096F800F09AF900F04AF901
:100ED80003F0E2FE02460E4BDB68B2FBF3F30D4A69
:100EE80013600B4803F0FAFF0B4803F0F7FF0B48B9
:100EF80003F0F4FF0021084804F0ACF80421064888
:100F080004F0A8F80821044804F0A4F8FEE700BF9C
:100F18004802002090020020B801002000020020B2
:100F280080B594B000AF07F12003302200211846A5
:100F380009F0F4F807F10C0300221A605A609A606D
:100F4800DA601A610023BB60284B1B6C274A43F008
:100F580080531364254B1B6C03F08053BB60BB6844
:100F680000237B60224B1B6823F44043204A43F450
:100F7800004313601E4B1B6803F440437B607B688F
:100F880001233B624FF480337B620223BB634FF43F
:100F98008003FB6319233B64C0237B640423BB6485
:100FA8000423FB6407F12003184603F017FB0346EC
:100FB800002B01D000F0E0FC0F23FB6002233B6113
:100FC80000237B614FF48053BB610023FB6107F171
:100FD8000C030121184603F079FD0346002B01D0CC
:100FE80000F0CAFC00BF5037BD4680BD0038024043
:100FF8000070004080B596B000AF07F148030022AA
:101008001A605A609A60DA6007F1400300221A6099
:101018005A6007F1240300221A605A609A60DA6065
:101028001A615A619A613B1D20220021184609F075
:1010380075F84A4B4A4A1A60484B00225A60474B97
:1010480000229A60454B40F2BF32DA60434B0022DF
:101058001A61424B00225A61404B80229A613F48F4
:1010680003F0ECFE0346002B01D000F085FC4FF4A2
:101078008053BB6407F148031946384804F064FA02
:101088000346002B01D000F077FC344803F088FFBA
:101098000346002B01D000F06FFC00233B640023C3
:1010A8007B6407F1400319462C4804F013FE0346FD
:1010B800002B01D000F060FC60237B620023BB6240
:1010C8000023FB6200233B6300237B630023BB6395
:1010D8000023FB6307F12403002219461F4804F08C
:1010E80071F90346002B01D000F046FC07F12403F8
:1010F80004221946194804F065F90346002B01D06B
:1011080000F03AFC07F1240308221946134804F0BA
:1011180059F90346002B01D000F02EFC00237B6018
:101128000023BB600023FB6000233B6100237B613D
:101138004FF40053BB6100233B623B1D194607482F
:1011480004F036FE0346002B01D000F015FC0348DE
:1011580000F0AAFC00BF5837BD4680BDB80100208A
:101168000000014080B586B000AF07F108030022F7
:101178001A605A609A60DA603B4600221A605A6028
:101188001D4B1E4A1A601C4BC8225A601A4B00227B
:101198009A60194B4BF67F32DA60174B00221A61BE
:1011A800154B80229A61144803F048FE0346002B31
:1011B80001D000F0E1FB4FF48053BB6007F1080356
:1011C80019460D4804F0C0F90346002B01D000F081
:1011D800D3FB00233B6000237B603B46194606484F
:1011E80004F078FD0346002B01D000F0C5FB00BFDA
:1011F8001837BD4680BD00BF000200200004004033
:1012080080B586B000AF07F1080300221A605A6063
:101218009A60DA603B4600221A605A601D4B1E4AEB
:101228001A601C4B00225A601A4B00229A60194B14
:101238004BF68032DA60174B00221A61154B802278
:101248009A61144803F0FAFD0346002B01D000F020
:1012580093FB4FF48053BB6007F1080319460D4810
:1012680004F072F90346002B01D000F085FB00233F
:101278003B6000237B603B461946064804F02AFD84
:101288000346002B01D000F077FB00BF1837BD469E
:1012980080BD00BF480200200008004080B58AB029
:1012A80000AF07F1140300221A605A609A60DA60EE
:1012B8001A6100233B614A4B1B6B494A43F0040304
:1012C8001363474B1B6B03F004033B613B6900232B
:1012D800FB60434B1B6B424A43F080031363404B54
:1012E8001B6B03F08003FB60FB680023BB603C4B77
:1012F8001B6B3B4A43F001031363394B1B6B03F031
:101308000103BB60BB6800237B60354B1B6B344A11
:1013180043F002031363324B1B6B03F002037B6041
:101328007B6800224FF400512E4801F083FE002212
:101338004FF4FC712C4801F07DFE4FF400537B61A3
:101348000123BB610023FB6100233B6207F1140307
:101358001946244801F0D2FC15237B614FF444134D
:10136800BB610023FB6107F1140319461F4801F014
:10137800C5FC2A237B610023BB610023FB6107F1C5
:1013880014031946194801F0B9FC4FF4FC737B614A
:101398000123BB610023FB6100233B6207F11403B7
:1013A8001946114801F0AAFC00220021062001F08C
:1013B8006EFC062001F087FC00220021082001F0C5
:1013C80066FC082001F07FFC002200210A2001F0C1
:1013D8005EFC0A2001F077FC00BF2837BD4680BDBF
:1013E80000380240000802400004024000000240A9
:1013F80080B582B000AF87ED010AD7ED017A27EEFC
:10140800A77AD7ED017AF3EE046A67EEA67A77EE4B
:10141800277A9FEDA57A77EE877A17EE900AFFF77D
:1014280045F802460B4643EC102B09F00DF953EC36
:10143800102B10461946FFF769FB03469B4A1360B9
:101448009A4BD3ED007A9FED9A7A37EE877AD7EDEB
:10145800017AF2EE046A77EEA67AC7EE276A16EEEC
:10146800900AFFF723F802460B4643EC102B08F0CE
:101478005FFE51EC100B02460B46FEF7B9FE024622
:101488000B4610461946FFF741FB0346894A13608D
:10149800884B1B681846FFF709F879A3D3E900239E
:1014A800FEF7A4FE02460B4610461946FFF72EFB30
:1014B800034601EE103ADFED800A9FED800A00F046
:1014C80095F9F0EE407A7E4BC3ED007A794B1B68B4
:1014D8001846FEF7EBFF6AA3D3E90023FEF786FE62
:1014E80002460B4610461946FFF710FB034601EE6D
:1014F800103AF3EE0C0AB3EE040A00F077F9F0EEB6
:10150800407A704BC3ED007A684B93ED007A6D4BCF
:10151800D3ED007A77EE677A6A4BC3ED007A694BB0
:101528001B681846FEF7C2FF57A3D3E90023FEF74E
:101538005DFE02460B4610461946FFF7E7FA0346DA
:10154800614A13605E4B1B681846FEF7AFFF50A355
:10155800D3E90023FEF74AFE02460B461046194619
:10156800FFF7D4FA0346594A1360504B1B681846D4
:10157800FEF79CFF48A3D3E90023FEF737FE024697
:101588000B4610461946FFF7C1FA0346504A136046
:101598004D4BD3ED007A9FED4F7AF4EEC77AF1EE1A
:1015A80010FA09DC484BD3ED007A9FED4B7AF4EE44
:1015B800C77AF1EE10FA02D5484B72221A70434BE3
:1015C800D3ED007AB2EE087AF4EEC77AF1EE10FAAB
:1015D80009DC3E4BD3ED007ABAEE067AF4EEC77A10
:1015E800F1EE10FA02D53D4B72221A70384BD3ED4A
:1015F800007AB2EE087AF4EEC77AF1EE10FA0CDC53
:10160800334B1B681846FEF751FF25A3D3E9002387
:10161800FFF716FA0346002B02D0304B72221A70DD
:10162800294BD3ED007A9FED2E7A67EE877AFDEE8F
:10163800E77A17EE902A2B4B1A60244BD3ED007AE9
:101648009FED277A67EE877AB1EE047A67EE877A9C
:10165800FDEEE77A17EE902A234B1A601C4BD3ED68
:10166800007A9FED1F7A67EE877AFDEEE77A17EE2C
:10167800902A1E4B1A6000BF0837BD4680BD00BFC8
:10168800182D4454FB21F93F38166FBFD7673240F5
:10169800C8BDAF80F8AB37401732B2BF4796454058
:1016A80033333333333313C00000E944A40200203A
:1016B8000000284298020020F55BC741151D7041C3
:1016C800A00200209C020020F4020020F802002062
:1016D800FC0200200000824100003CC1BC02002046
:1016E8000000A0420003002004030020080300209B
:1016F800B0B500AF344B1B681846FEF7D7FE2EA3D3
:10170800D3E90023FEF774FD02460B46104619463E
:10171800FFF7FCF903462D4A13602D4B1B6818464A
:10172800FEF7C4FE26A3D3E90023FEF761FD0246B7
:101738000B4610461946FFF7E9F90346254A136098
:10174800224BD3ED007AB0EE671ADFED230A9FED46
:10175800230A00F0C9F8F0EE407A214BC3ED007A75
:101768001C4B1B681846FEF7A1FE04460D461C4B91
:101778001B681846FEF79AFE02460B4643EC102BF0
:1017880008F0D6FE53EC102B20462946FEF7E6FE5D
:1017980002460B46104619464FF00002114BFEF761
:1017A80025FD02460B4610461946FFF7AFF90346DA
:1017B8000D4A136000BFB0BDC8BDAF80F8AB37405D
:1017C8001732B2BF47964540EC020020B402002011
:1017D800F0020020B0020020F55BC741151D7041E2
:1017E800AC02002000002440B80200202DE9B043DC
:1017F80084B000AF87ED030AC7ED020A87ED011A2E
:10180800D7ED027A67EEA77A17EE900AFEF74EFE3A
:1018180004460D46D7ED037A67EEA77A17EE900ACD
:10182800FEF744FE804689467868FEF73FFE02468A
:101838000B4643EC102B08F07BFE53EC102B404674
:101848004946FEF78BFE02460B4690469946786855
:10185800FEF72CFE02460B4643EC102B08F068FE00
:1018680053EC102B40464946FEF778FE02460B46DD
:1018780020462946FEF7BAFC02460B4643EC172BD6
:10188800B0EE470AF0EE670A08F0DEFE59EC108B5E
:10189800F868FEF70BFE04460D467868FEF706FE6C
:1018A80002460B4643EC102B08F0E2FD53EC102BDC
:1018B80020462946FEF752FE02460B464046494658
:1018C800FEF796FC02460B4610461946FFF71EF92E
:1018D800034607EE903AB0EE670A1037BD46BDE8FA
:1018E800B08300000000000080B584B000AF87ED31
:1018F800030AC7ED020A87ED011AD7ED037A27EE2E
:10190800A77AD7ED017A67EEA77A37EE277AD7ED6F
:10191800027A67EEA77A37EE677AD7ED037A77EE21
:10192800A76AD7ED017A66EEA77AC7EE276A16EEA0
:10193800900AFEF7BBFD02460B4643EC102B08F05D
:101948004FFE51EC100B0AA3D3E90023FEF750FC1D
:1019580002460B4610461946FFF7D8F8034607EE2D
:10196800903AB0EE670A1037BD4680BDAFF30080ED
:10197800182D4454FB21F93F80B500AF72B600BF63
:10198800054B064A1168526819605A6008210248D6
:1019980007F048FFF4E700BF080000201800002007
:1019A80080B483B000AF00237B60104B5B6C0F4AA0
:1019B80043F4804353640D4B5B6C03F480437B60BA
:1019C8007B6800233B60094B1B6C084A43F080533B
:1019D8001364064B1B6C03F080533B603B6800BFED
:1019E8000C37BD465DF8047B704700BF00380240E5
:1019F80080B586B000AF78607B681B68264A934242
:101A08000ED100237B61254B5B6C244A43F0010314
:101A18005364224B5B6C03F001037B617B6936E006
:101A28007B681B681E4A934216D100233B611B4BFF
:101A38001B6C1A4A43F002031364184B1B6C03F027
:101A480002033B613B69002201211D2001F01FF9BF
:101A58001D2001F038F91AE07B681B68114A93428F
:101A680015D10023FB600D4B1B6C0C4A43F004039B
:101A780013640A4B1B6C03F00403FB60FB68002231
:101A880001211E2001F003F91E2001F01CF900BFFE
:101A98001837BD4680BD00BF000001400038024035
:101AA800000400400008004080B588B000AF7860AE
:101AB80007F10C0300221A605A609A60DA601A6112
:101AC8007B681B68124A93421ED10023BB60114BEE
:101AD8001B6B104A43F0010313630E4B1B6B03F09F
:101AE8000103BB60BB684FF4E063FB6002233B610A
:101AF80000237B610023BB610123FB6107F10C0319
:101B08001946054801F0FAF800BF2037BD4680BDE8
:101B180000000140003802400000024080B400AFDD
:101B2800FEE780B400AFFEE780B400AFFEE780B404
:101B380000AFFEE780B400AFFEE780B400AF00BF9F
:101B4800BD465DF8047B704780B400AF00BFBD465A
:101B58005DF8047B704780B400AF00BFBD465DF8F8
:101B6800047B704780B500AF00F072FF00BF80BDF6
:101B780080B500AF0121214801F044FA0346002B4B
:101B880011D002211D4801F03DFA0346002B05D073
:101B98001B4B1B6801331A4A136004E0184B1B687F
:101BA800013B174A13600121144801F02BFA034640
:101BB800002B11D10221114801F024FA0346002B11
:101BC80005D00F4B1B68013B0D4A136004E00C4B1A
:101BD8001B6801330A4A1360094B1B6807EE903AE9
:101BE800B8EEE77ADFED076AC7EE267A064BC3ED53
:101BF800007A012001F052FA00BF80BD00000240C7
:101C0800DC0200200000A042E802002080B500AFFE
:101C18000421214801F0F6F90346002B11D00821D0
:101C28001D4801F0EFF90346002B05D01B4B1B683C
:101C380001331A4A136004E0184B1B68013B174A2A
:101C480013600421144801F0DDF90346002B11D17B
:101C58000821114801F0D6F90346002B05D00F4B97
:101C68001B68013B0D4A136004E00C4B1B680133F1
:101C78000A4A1360094B1B6807EE903AB8EEE77AF8
:101C8800DFED076AC7EE267A064BC3ED007A04201B
:101C980001F004FA00BF80BD00000240E00200200D
:101CA8000000C843EC02002080B500AF1021214895
:101CB80001F0A8F90346002B11D020211D4801F09E
:101CC800A1F90346002B05D01B4B1B6801331A4AA8
:101CD800136004E0184B1B68013B174A136010217E
:101CE800144801F08FF90346002B11D12021114827
:101CF80001F088F90346002B05D00F4B1B68013B08
:101D08000D4A136004E00C4B1B6801330A4A136048
:101D1800094B1B6807EE903AB8EEE77ADFED076AE1
:101D2800C7EE267A064BC3ED007A102001F0B6F90B
:101D380000BF80BD00000240E40200200000A04275
:101D4800F002002080B500AF4D4B1B78002B40F00F
:101D580091804C4B4FF000021A604B4B93ED007A88
:101D68004A4BD3ED007AB4EEE77AF1EE10FA2CDDA7
:101D7800454B93ED007A454BD3ED007A77EE677AC1
:101D880017EE900AFEF792FB414BD3E90023FEF7CA
:101D980075FE0346002B13D03B4B1B681846FEF715
:101DA80085FB3B4BD3E90023FEF720FA02460B469E
:101DB80010461946FEF7AAFE0346324A136030E081
:101DC800324B1B682F4A13602BE0304B93ED007A9F
:101DD8002D4BD3ED007A77EE677A17EE900AFEF76F
:101DE80065FB2B4BD3E90023FEF748FE0346002B87
:101DF80013D0254B1B681846FEF758FB244BD3E934
:101E08000023FEF7F5F902460B4610461946FEF781
:101E18007DFE03461B4A136003E01C4B1B68194AEE
:101E28001360184BD3ED007AB0EE670AFFF7E0FABB
:101E3800184B1B78012B1DD1144B93ED007A124BD4
:101E4800D3ED007A77EE677AF0EEE77AB0EE007AB3
:101E5800F4EEC77AF1EE10FA0CD50F4B0F4A92E860
:101E6800030083E8030008210B4807F0DBFC094B5B
:101E780000221A700A4803F09DF900BF80BD00BF18
:101E880038000020D8020020B8020020A802002054
:101E980000000020BE0200200800002010000020E2
:101EA8000002002000000000B0B584B000AFB64BBF
:101EB8001B78002B40F04883B44B1B78002B40F074
:101EC8004383B34B1A68B34B1B68D31A07EE903A97
:101ED800F8EEE77AB04BC3ED007AB04B1A68B04B16
:101EE8001B68D31A07EE903AF8EEE77AAD4BC3EDCC
:101EF800007AAD4B1A68AD4B1B68D31A07EE903ABF
:101F0800F8EEE77AAA4BC3ED007AA34B93ED007A7B
:101F1800A84BD3ED007A37EE677AA74B1B6807EE1C
:101F2800903AF8EE677A67EE277AC7ED037A9D4B09
:101F380093ED007AA14BD3ED007A37EE677A9E4B8A
:101F48001B6807EE903AF8EE677A67EE277AC7EDD6
:101F5800027A974B93ED007A994BD3ED007A37EEDE
:101F6800677A954B1B6807EE903AF8EE677A67EE4A
:101F7800277AC7ED017A884BD3ED006A8E4B1B6830
:101F880007EE903AF8EE677A86EEA77A8D4BD3ED96
:101F9800007A77EE277A8B4BC3ED007A814BD3ED2D
:101FA800006A854B1B6807EE903AF8EE677A86EE72
:101FB800A77A854BD3ED007A77EE277A824BC3ED6B
:101FC800007A7B4BD3ED006A7B4B1B6807EE903A97
:101FD800F8EE677A86EEA77A7C4BD3ED007A77EE37
:101FE800277A7A4BC3ED007A764BD3ED007A9FEDD2
:101FF800787AF4EEC77AF1EE10FA02DB714B754A83
:102008001A60714BD3ED007A9FED717AF4EEC77ABE
:10201800F1EE10FA02DB6C4B6E4A1A606B4BD3ED93
:10202800007A9FED6B7AF4EEC77AF1EE10FA02DBD4
:10203800664B684A1A60634BD3ED007A9FED667A67
:10204800F4EEC77AF1EE10FA02D85E4B634A1A60D2
:102058005D4BD3ED007A9FED607AF4EEC77AF1EE2E
:1020680010FA02D8584B5D4A1A60584BD3ED007AE3
:102078009FED597AF4EEC77AF1EE10FA02D8534B75
:10208800564A1A60444BD3ED007AF5EEC07AF1EE69
:1020980010FA07DD4B4BD3ED007AF5EEC07AF1EE7E
:1020A80010FA0FD43C4BD3ED007AF5EEC07AF1EE7E
:1020B80010FA0BD5434BD3ED007AF5EEC07AF1EE6A
:1020C80010FA03DD3F4B4FF000021A60354BD3ED99
:1020D800007AF5EEC07AF1EE10FA07DD3A4BD3ED4F
:1020E800007AF5EEC07AF1EE10FA0FD42D4BD3ED4D
:1020F800007AF5EEC07AF1EE10FA0BD5324BD3ED3B
:10210800007AF5EEC07AF1EE10FA03DD2E4B4FF0AF
:1021180000021A60264BD3ED007AF5EEC07AF1EE94
:1021280010FA07DD294BD3ED007AF5EEC07AF1EE0F
:1021380010FA0FD41E4BD3ED007AF5EEC07AF1EE0B
:1021480010FA0BD5214BD3ED007AF5EEC07AF1EEFB
:1021580010FA03DD1D4B4FF000021A600E4B1B688E
:10216800144A13600F4B1B68144A1360104B1B680A
:10217800134A13601A4B93ED007A074BD3ED007A9C
:1021880027EE277A2EE000BFBC020020BD02002007
:1021980000030020DC0200200C03002004030020C0
:1021A800E00200201003002008030020E4020020C1
:1021B8001403002018030020900200201C030020B4
:1021C8002003002024030020280300202C030020E3
:1021D8000000204200002042000020C2000020C26F
:1021E800200000205D4BD3ED006AD7ED037A66EE40
:1021F800A77A37EE277A5A4BD3ED006A594BD3EDBD
:10220800007A66EEA77A77EE277AFDEEE77A17EE80
:10221800902A554B1A60554B93ED007A544BD3EDE9
:10222800007A27EE277A534BD3ED006AD7ED027A6E
:1022380066EEA77A37EE277A4F4BD3ED006A4F4BFD
:10224800D3ED007A66EEA77A77EE277AFDEEE77A85
:1022580017EE902A4A4B1A604A4B93ED007A4A4B84
:10226800D3ED007A27EE277A484BD3ED006AD7EDF5
:10227800017A66EEA77A37EE277A454BD3ED006AE6
:10228800444BD3ED007A66EEA77A77EE277AFDEE17
:10229800E77A17EE902A404B1A60334B1B68002BE5
:1022A8000EDD3E4B1B781A4608213D4800F0C2FE61
:1022B8003C4B1B781A461021394800F0BBFE12E04F
:1022C800294B1B685B42284A1360344B1B781A461B
:1022D8001021334800F0AEFE324B1B781A46082115
:1022E8002F4800F0A7FE264B1B68002B0EDD2B4B5A
:1022F8001B781A4620212A4800F09CFE294B1B789F
:102308001A464021264800F095FE12E01C4B1B6837
:102318005B421B4A1360214B1B781A464021204818
:1023280000F088FE1F4B1B781A4620211C4800F03D
:1023380081FE194B1B68002B36DD184B1B781A469B
:102348008021174800F076FE164B1B781A464FF48A
:102358008071134800F06EFE3AE000BF30030020A1
:1023680024000020240300203C0300202800002033
:1023780010030020340300202C0000202803002034
:102388004003002030000020140300203803002000
:10239800340000202C0300204403002048030020C0
:1023A8000004024039000020774B1B685B42764AE4
:1023B8001360764B1B781A464FF48071744800F00E
:1023C80039FE744B1B781A468021714800F032FEA2
:1023D800714B1B681846FEF757F804460D466F4BBD
:1023E800DB6801331846FEF73FF865A3D3E90023FD
:1023F800FEF7B4F802460B4620462946FEF73EFB98
:102408000346002B13D0654BDB6801331846FEF7F3
:102418002BF85BA3D3E90023FEF7A0F802460B468E
:1024280010461946FEF74AFB03465B4A13605C4BAD
:102438001B681846FEF728F804460D46574BDB681C
:1024480001331846FEF710F84DA3D3E90023FEF731
:1024580085F802460B4620462946FEF70FFB034641
:10246800002B13D04D4BDB6801331846FDF7FCFFFA
:1024780043A3D3E90023FEF771F802460B46104642
:102488001946FEF71BFB0346454A13603E4B1B6883
:102498001846FDF7F9FF04460D46404BDB6801334B
:1024A8001846FDF7E1FF36A3D3E90023FEF756F8F7
:1024B80002460B4620462946FEF7E0FA0346002B63
:1024C80013D0364BDB6801331846FDF7CDFF2CA33C
:1024D800D3E90023FEF742F802460B461046194698
:1024E800FEF7ECFA0346284A13602E4BD3ED007A28
:1024F800F5EE407AF1EE10FA19D12B4BD3ED007AB4
:10250800F5EE407AF1EE10FA11D1284BD3ED007AAE
:10251800F5EE407AF1EE10FA09D1254B00225A6304
:10252800234B00229A63224B0022DA631FE01A4BE6
:102538001A681F4B5A631A4B1A681D4B9A63124B41
:102548001A681B4BDA6312E0194B00225A63184BC6
:1025580000229A63164B0022DA63164B164A92E859
:10256800030083E803000821124807F05BF9FFF72E
:10257800BFF8124802F01EFE00BF1037BD46B0BDBE
:10258800666666666666EE3F4403002048030020E0
:1025980000040240390000203C030020B80100205C
:1025A800400300200C030020100300201403002027
:1025B8000000014008000020180000204802002008
:1025C800B0B582B000AF0821AF4807F017F9AF499E
:1025D800AD48FDF7FDFD0346002B00F098814FF450
:1025E8000051AB4800F03FFDAA4BA74A92E8030010
:1025F80083E80300A74B1B786D2B42D1A54B5B7872
:102608009BB21B029AB2A34B9B789BB213449BB21A
:102618001AB2A14B1A809F4BDB789BB21B029AB26D
:102628009C4B1B799BB213449BB21AB29B4B1A80EA
:102638009B4B1B681846FDF739FF04460D46964B21
:10264800B3F9003007EE903AF8EEE77A17EE900A01
:10265800FDF72CFF4FF00002924BFEF7A9F8024657
:102668000B4620462946FDF7C3FD02460B46104699
:102678001946FEF74BFA0346894A13608A4B012232
:102688001A70844B1B78732B02D1884B01221A7065
:10269800804B1B78692B40F09C80854B1B78012B65
:1026A80040F097807B4B5B789BB21B029AB2794BC8
:1026B8009B789BB213449BB2FB80764BDB789BB232
:1026C8001B029AB2734B1B799BB213449BB2BB801B
:1026D800704B5B799BB21B029AB26E4B9B799BB293
:1026E80013449BB27B80B7F90630002BB8BF5B421E
:1026F8009BB2312B1DD8B7F9063007EE903AF8EEA9
:10270800E77AB1EE677AF2EE046AC7EE267A694B89
:10271800C3ED007A674BD3ED007A9FED677A67EED9
:10272800877A77EEA77AFDEEE77A17EE902A634B61
:102738001A60B7F90430002BB8BF5B429BB2312B4B
:1027480021D8B7F9043007EE903AF8EEE77AB1EEFF
:10275800677AF2EE046AC7EE267A594BC3ED007A1F
:10276800574BD3ED007A9FED547A67EE877AB1EE36
:10277800047A67EE877A77EEA77AFDEEE77A17EEA6
:10278800902A504B1A60B7F90230002BB8BF5B4251
:102798009BB2312B1DD8B7F9023007EE903AF8EE0C
:1027A800E77AB1EE677AF2EE046AC7EE267A464B0C
:1027B800C3ED007A444BD3ED007A9FED3F7A67EE84
:1027C800877A77EEA77AFDEEE77A17EE902A3F4BE5
:1027D8001A60304B1B78622B40F09980344B1B7881
:1027E800012B40F091803A4B4FF000021A60394BB0
:1027F8004FF000021A60384B4FF000021A60374B56
:1028080000221A60364B00221A60364B00221A60EA
:10281800284B4FF000021A60294B4FF000021A6053
:10282800294B4FF000021A60244B00221A60254BF6
:1028380000221A60254B00221A60194B4FF0000243
:102848001A60294B4FF000021A60284B4FF0000223
:102858001A60274B4FF000021A60264B4FF0000217
:102868001A60254B00225A63234B00229A63224B9D
:102878000022DA63214B00221A60214B00221A60E1
:10288800204B00221A603FE0C8020020D00200203E
:1028980000080240C0020020940200209602002096
:1028A800A802002000002440BE020020BD02002033
:1028B80038000020E802002000002042DC0200204E
:1028C800EC020020E0020020F0020020E4020020D8
:1028D800F4020020F8020020FC020020000300207F
:1028E8000403002008030020B8020020240300206D
:1028F800280300202C030020000001403C03002096
:102908004003002044030020074B00221A700822CD
:102918000021064807F002FC054800F032FD00BF20
:102928000837BD46B0BD00BF38000020C8020020EF
:102938003010002080B400AF064BD3F88830054A29
:1029480043F47003C2F8883000BFBD465DF8047BCD
:10295800704700BF00ED00E0DFF834D00D480E49A5
:102968000E4A002302E0D458C4500433C4188C42E1
:10297800F9D30B4A0B4C002301E013600432A24246
:10298800FBD3FFF7D7FF07F0A5FBFEF791FA7047D7
:1029980000000120000000209C01002058BF000812
:1029A8009C0100205C170020FEE7000080B500AF06
:1029B8000E4B1B680D4A43F4007313600B4B1B68E6
:1029C8000A4A43F480631360084B1B68074A43F4C0
:1029D80080731360032000F04FF90F2000F008F80F
:1029E800FEF7DEFF0023184680BD00BF003C024012
:1029F80080B582B000AF7860124B1A68124B1B7812
:102A080019464FF47A73B3FBF1F3B2FBF3F31846AC
:102A180000F067F90346002B01D001230EE07B6824
:102A28000F2B0AD8002279684FF0FF3000F02FF9F9
:102A3800064A7B681360002300E001231846083724
:102A4800BD4680BD3C00002044000020400000201E
:102A580080B400AF064B1B781A46064B1B6813441C
:102A6800044A136000BFBD465DF8047B704700BF91
:102A7800440000204C03002080B400AF034B1B68C7
:102A88001846BD465DF8047B704700BF4C03002024
:102A980080B584B000AF7860FFF7EEFFB8607B6860
:102AA800FB60FB68B3F1FF3F05D00A4B1B781A4661
:102AB800FB681344FB6000BFFFF7DEFF0246BB68FC
:102AC800D31AFA689A42F7D800BF00BF1037BD463C
:102AD80080BD00BF4400002080B485B000AF78609E
:102AE8007B6803F00703FB600C4BDB68BB60BA68CC
:102AF8004FF6FF031340BB60FB681A02BB68134321
:102B080043F0BF6343F40033BB60044ABB68D3603F
:102B180000BF1437BD465DF8047B704700ED00E048
:102B280080B400AF044BDB681B0A03F007031846A8
:102B3800BD465DF8047B704700ED00E080B483B0CB
:102B480000AF0346FB7197F90730002B0BDBFB79CD
:102B580003F01F02074997F907305B09012000FAC3
:102B680002F241F8232000BF0C37BD465DF8047B14
:102B7800704700BF00E100E080B483B000AF0346B7
:102B88003960FB7197F90730002B0ADB3B68DAB232
:102B98000C4997F907301201D2B20B4483F800238D
:102BA8000AE03B68DAB20849FB7903F00F03043BFB
:102BB8001201D2B20B441A7600BF0C37BD465DF83D
:102BC800047B704700E100E000ED00E080B489B0CC
:102BD80000AFF860B9607A60FB6803F00703FB6137
:102BE800FB69C3F10703042B28BF0423BB61FB69FE
:102BF8000433062B02D9FB69033B00E000237B6109
:102C08004FF0FF32BB6902FA03F3DA43BB681A409C
:102C18007B699A404FF0FF317B6901FA03F3D9438E
:102C28007B680B40134318462437BD465DF8047B88
:102C38007047000080B582B000AF78607B68013BC8
:102C4800B3F1807F01D301230FE00A4A7B68013B7F
:102C580053600F214FF0FF30FFF78EFF054B002226
:102C68009A60044B07221A60002318460837BD46AD
:102C780080BD00BF10E000E080B582B000AF786092
:102C88007868FFF729FF00BF0837BD4680BD80B5CB
:102C980086B000AF0346B9607A60FB7300237B619E
:102CA800FFF73EFF78617A68B9687869FFF78EFFA9
:102CB800024697F90F3011461846FFF75DFF00BF2F
:102CC8001837BD4680BD80B582B000AF0346FB71A2
:102CD80097F907301846FFF731FF00BF0837BD46A0
:102CE80080BD80B582B000AF78607868FFF7A2FF3A
:102CF800034618460837BD4680BD000080B489B039
:102D080000AF7860396000237B6100233B610023BA
:102D1800BB610023FB6159E10122FB6902FA03F35D
:102D28007B613B681B687A6913403B613A697B6940
:102D38009A4240F048813B685B6803F00303012B2B
:102D480005D03B685B6803F00303022B30D17B6836
:102D58009B68BB61FB695B00032202FA03F3DB4358
:102D6800BA691340BB613B68DA68FB695B0002FA29
:102D780003F3BA691343BB617B68BA699A607B68DD
:102D88005B68BB610122FB6902FA03F3DB43BA69A2
:102D98001340BB613B685B681B0903F00102FB69D8
:102DA80002FA03F3BA691343BB617B68BA695A60D4
:102DB8003B685B6803F00303032B17D07B68DB6871
:102DC800BB61FB695B00032202FA03F3DB43BA69C8
:102DD8001340BB613B689A68FB695B0002FA03F326
:102DE800BA691343BB617B68BA69DA603B685B68A0
:102DF80003F00303022B23D1FB69DA087B6808324E
:102E080053F82230BB61FB6903F007039B000F22D4
:102E180002FA03F3DB43BA691340BB613B681A69E2
:102E2800FB6903F007039B0002FA03F3BA69134333
:102E3800BB61FB69DA087B680832B96943F822107C
:102E48007B681B68BB61FB695B00032202FA03F322
:102E5800DB43BA691340BB613B685B6803F003025C
:102E6800FB695B0002FA03F3BA691343BB617B6831
:102E7800BA691A603B685B6803F44033002B00F0C2
:102E8800A2800023FB60574B5B6C564A43F4804397
:102E98005364544B5B6C03F48043FB60FB68524AF9
:102EA800FB699B08023352F82330BB61FB6903F0CE
:102EB80003039B000F2202FA03F3DB43BA691340B2
:102EC800BB617B68494A934219D07B68484A934260
:102ED80013D07B68474A93420DD07B68464A934299
:102EE80007D07B68454A934201D1042308E00723B1
:102EF80006E0032304E0022302E0012300E00023AC
:102F0800FA6902F0030292009340BA691343BB6165
:102F18003549FB699B080233BA6941F82320384BCD
:102F28009B68BB613B69DB43BA691340BB613B6883
:102F38005B6803F48013002B03D0BA693B69134321
:102F4800BB612F4ABB6993602D4BDB68BB613B6952
:102F5800DB43BA691340BB613B685B6803F4001349
:102F6800002B03D0BA693B691343BB61244ABB6990
:102F7800D360234B5B68BB613B69DB43BA69134091
:102F8800BB613B685B6803F40033002B03D0BA696C
:102F98003B691343BB611A4ABB695360184B1B68F2
:102FA800BB613B69DB43BA691340BB613B685B6843
:102FB80003F48033002B03D0BA693B691343BB6128
:102FC8000F4ABB691360FB690133FB61FB690F2B77
:102FD8007FF6A2AE00BF00BF2437BD465DF8047B74
:102FE800704700BF0038024000380140000002402E
:102FF8000004024000080240000C02400010024099
:10300800003C014080B485B000AF78600B467B80FF
:103018007B681A697B881340002B02D00123FB735D
:1030280001E00023FB73FB7B18461437BD465DF8AF
:10303800047B704780B483B000AF78600B467B8018
:1030480013467B707B78002B03D07A887B689A6163
:1030580003E07B881A047B689A6100BF0C37BD4681
:103068005DF8047B704780B485B000AF78600B468C
:103078007B807B685B69FB607A88FB6813401A0475
:10308800FB68D9437B880B401A437B689A6100BF71
:103098001437BD465DF8047B7047000080B582B0E8
:1030A80000AF0346FB80084B5A69FB881340002B8E
:1030B80006D0054AFB885361FB88184600F006F8DD
:1030C80000BF0837BD4680BD003C014080B483B0D6
:1030D80000AF0346FB8000BF0C37BD465DF8047B9C
:1030E8007047F0B58FB00AAF78607B68002B01D1CC
:1030F80001230FE17B681B68BB607B6893F8BD34D4
:10310800DBB2002B06D17B68002283F8BC247868E8
:1031180006F0D0FC7B68032283F8BD24BB68DB6B18
:1031280003F48073002B02D17B6800221A617B684C
:103138001B68184602F0B7FF7B681B683B607E6817
:103148006D4606F110040FCC0FC50FCC0FC594E8DF
:10315800030085E80300331D0ECB386802F08EFEAD
:103168000346002B05D07B68022283F8BD24012387
:10317800D0E07B681B680021184602F0A5FF0023F9
:10318800FB734AE0FA7B79681346DB0013449B0023
:103198000B443D3301221A70FA7B79681346DB0031
:1031A80013449B000B443C33FA7B1A70FA7BFB7B7D
:1031B80098B279681346DB0013449B000B444433F0
:1031C80002461A80FA7B79681346DB0013449B0099
:1031D8000B44403300221A70FA7B79681346DB00EF
:1031E80013449B000B44483300221A60FA7B796829
:1031F8001346DB0013449B000B444C3300221A6037
:10320800FA7B79681346DB0013449B000B44543364
:1032180000221A60FB7B0133FB73FA7B7B685B68D7
:103228009A42AFD30023FB7344E0FA7B79681346D4
:10323800DB0013449B000B4403F27D2300221A7029
:10324800FA7B79681346DB0013449B000B4403F5B3
:103258001F73FA7B1A70FA7B79681346DB001344F4
:103268009B000B4403F5207300221A70FA7B7968DF
:103278001346DB0013449B000B4403F52273002222
:103288001A60FA7B79681346DB0013449B000B44F1
:1032980003F5237300221A60FA7B79681346DB0072
:1032A80013449B000B4403F5257300221A60FB7B33
:1032B8000133FB73FA7B7B685B689A42B5D37B6802
:1032C8001B683B607E686D4606F110040FCC0FC585
:1032D8000FCC0FC594E8030085E80300331D0ECB1F
:1032E800386802F03DFF0346002B05D07B680222B8
:1032F80083F8BD2401230DE07B68002283F8382081
:103308007B68012283F8BD247B681B68184604F09B
:103318008CF8002318461437BD46F0BD80B584B03C
:1033280000AF78607B681B68FB607B6893F8BC34EF
:10333800012B01D1022320E07B68012283F8BC2401
:103348007B689B6A012B09D17B689B69012B05D09F
:10335800FB689B6B43F48032FB689A637B681B684D
:10336800184602F08FFE7B681B68184604F03CF88C
:103378007B68002283F8BC24002318461037BD461A
:1033880080BD90B58DB000AF78607B681B683B62EC
:103398003B6AFB617B681B68184604F0FAF8034631
:1033A800002B40F08A847B681B68184604F05EF89E
:1033B8000346002B00F08084FB6903F500639B68DB
:1033C8001B0AC3F30D027B68C3F8FC247B681B68E7
:1033D800184604F04BF8034603F00203022B07D10A
:1033E8007B681B685A697B681B6802F002025A6195
:1033F8007B681B68184604F039F8034603F010038D
:10340800102B61D17B681B689A697B681B6822F066
:1034180010029A613B6A1B6ABB61BB6903F00F0229
:103428001346DB0013449B0003F51E737A681344AC
:1034380004337B61BB695B0C03F00F03022B24D1BF
:10344800BA6947F6F0731340002B35D07B691969C8
:10345800BB691B099BB2C3F30A039BB21A46386ABD
:1034680003F070FE7B691A69BB691B09C3F30A0381
:103478001A447B691A617B691A6ABB691B09C3F321
:103488000A031A447B691A6216E0BB695B0C03F0F5
:103498000F03062B10D17B6803F2C4430822194698
:1034A800386A03F04FFE7B691A6ABB691B09C3F3CC
:1034B8000A031A447B691A627B681B689A697B68ED
:1034C8001B6842F010029A617B681B68184603F07B
:1034D800CDFF034603F40023B3F5002F40F0A78087
:1034E80000237B627B681B68184603F0D2FFB86232
:1034F80099E0BB6A03F00103002B00F08E807B6823
:103508001B687A6AD2B21146184603F0F6FF386192
:103518003B6903F00103002B0CD07B6A5A01FB695D
:10352800134403F530631A4601239360796A786877
:1035380000F0C2FE3B6903F00803002B0CD07B6A45
:103548005A01FB69134403F530631A460823936054
:10355800796A786800F098FF3B6903F01003002B44
:1035680008D07B6A5A01FB69134403F530631A4695
:10357800102393603B6903F00203002B30D03B6AB1
:103588005B6903F08003802B09D1FB6903F50063B5
:103598005B68FA6902F5006243F4806353607A6AF3
:1035A8001346DB0013449B0003F51E737A6813442B
:1035B80004337B617B69DB78012B08D17B690022AE
:1035C800DA707B6ADBB21946786806F06FFB7B6AB3
:1035D8005A01FB69134403F530631A4602239360CA
:1035E8003B6903F02003002B08D07B6A5A01FB6972
:1035F800134403F530631A46202393603B6903F4B0
:103608000053002B09D07B6A5A01FB69134403F568
:1036180030631A464FF4005393607B6A01337B6230
:10362800BB6A5B08BB62BB6A002B7FF462AF7B6836
:103638001B68184603F01AFF034603F48023B3F50A
:10364800802F40F0DB807B681B68184603F03BFF47
:10365800B86200237B62CDE0BB6A03F00103002B54
:1036680000F0C2807B681B687A6AD2B2114618469D
:1036780003F061FF38613B6903F00103002B57D069
:103688007B6A03F00F03012202FA03F3FB60FB6974
:1036980003F500635A6BFB68DB43F96901F50061C8
:1036A80013404B637B6A5A01FB69134403F51063AB
:1036B8001A46012393607B681B69012B32D1796814
:1036C8007A6A1346DB0013449B000B444C33196899
:1036D80078687A6A1346DB0013449B000344483336
:1036E8001B68194478687A6A1346DB0013449B0008
:1036F80003444C3319607B6A002B13D179687A6ACA
:103708001346DB0013449B000B4454331B68002B07
:1037180008D17B6818687B6803F2C4431A46012104
:1037280003F068FF7B6ADBB21946786806F043FA53
:103738003B6903F00803002B08D07B6A5A01FB6938
:10374800134403F510631A46082393603B6903F09A
:103758001003002B08D07B6A5A01FB69134403F558
:1037680010631A46102393603B6903F04003002B53
:1037780008D07B6A5A01FB69134403F510631A46A3
:10378800402393603B6903F00203002B23D0796A3E
:10379800386A02F049FE7A6A1346DB0013449B003C
:1037A80038337A68134404337B617B69DB78012BF7
:1037B80008D17B690022DA707B6ADBB21946786827
:1037C80006F086FA7B6A5A01FB69134403F5106315
:1037D8001A46022393603B6903F08003002B03D051
:1037E800796A786800F0DBFC7B6A01337B62BB6A2C
:1037F8005B08BB62BB6A002B7FF42EAF7B681B683B
:10380800184603F033FE034603F00043B3F1004FBC
:1038180022D1FB6903F500635B68FA6902F500626F
:1038280023F0010353607B6893F8F434012B08D12B
:103838007B68002283F8F4240021786800F0C2FE37
:1038480002E0786806F024FA7B681B685A697B688E
:103858001B6802F000425A617B681B68184603F037
:1038680005FE034603F40063B3F5006F12D1FB694C
:1038780003F500639B6803F00103012B02D178680C
:1038880006F0E0F97B681B685A697B681B6802F4DC
:1038980000625A617B681B68184603F0E7FD03461F
:1038A80003F48053B3F5805F40F0B780FB6903F5FC
:1038B80000635B68FA6902F5006223F00103536054
:1038C8007B681B681021184602F0AEFD0023FB62DE
:1038D80046E0FB6A5A01FB69134403F510631A4674
:1038E8004FF67F339360FB6A5A01FB69134403F573
:1038F80010631B68FA6A5101FA690A4402F51062FA
:1039080023F400131360FB6A5A01FB69134403F59F
:1039180030631A464FF67F339360FB6A5A01FB699E
:10392800134403F530631B68FA6A5101FA690A44C3
:1039380002F5306223F400131360FB6A5A01FB6935
:10394800134403F530631B68FA6A5101FA690A44A3
:1039580002F5306243F000631360FB6A0133FB62D7
:103968007B685B68FA6A9A42B3D3FB6903F5006324
:10397800DB69FA6902F5006243F00113D3617B68E1
:103988001B6B002B16D0FB6903F50063D3F884305A
:10399800FA6902F5006243F00B03C2F88430FB6950
:1039A80003F500635B6CFA6902F5006243F00B03F0
:1039B800536415E0FB6903F500635B69FA6902F576
:1039C800006243F4005343F02B035361FB6903F592
:1039D80000631B69FA6902F5006243F00B03136187
:1039E800FB6903F500631B68FA6902F5006223F4BA
:1039F800FE6313607B6818687B681B69D9B27B68B3
:103A080003F2C4431A4603F0F5FD7B681B685A6944
:103A18007B681B6802F480525A617B681B681846F1
:103A280003F024FD034603F40053B3F5005F24D1EB
:103A38007B681B68184603F0BAFD7B681B6818464C
:103A480002F06FFD03461A467B68DA607B681C68E3
:103A580001F0E8F901467B68DB68DBB21A462046CC
:103A680002F06EFA786806F0CEF87B681B685A692F
:103A78007B681B6802F400525A617B681B68184611
:103A880003F0F4FC034603F00803082B0AD1786816
:103A980006F0ABF87B681B685A697B681B6802F004
:103AA80008025A617B681B68184603F0DFFC03466E
:103AB80003F08003802B22D13B6A9B6923F08002AC
:103AC8003B6A9A6101237B6214E079687A6A13463B
:103AD800DB0013449B000B4403F27F231B78012B6C
:103AE80005D17B6ADBB21946786800F027FB7B6A50
:103AF80001337B627B685B687A6A9A42E5D37B68AC
:103B08001B68184603F0B2FC034603F48013B3F5B0
:103B1800801F3BD101237B622BE07B6A5A01FB6942
:103B2800134403F510631B68BB6179687A6A13460E
:103B3800DB0013449B000B4440331B78012B15D149
:103B4800BB69002B12DA79687A6A1346DB001344E2
:103B58009B000B443F3301221A707B6ADBB263F08F
:103B68007F03DBB21946786800F0E8FA7B6A013314
:103B78007B627B685B687A6A9A42CED37B681B68F3
:103B88005A697B681B6802F480125A617B681B685B
:103B9800184603F06BFC034603F40013B3F5001F4B
:103BA80055D101237B6245E07B6A5A01FB691344C6
:103BB80003F530631B68BB6179687A6A1346DB00DA
:103BC80013449B000B4403F520731B78012B2ED163
:103BD800BB69002B2BDABB6903F480327B68D3F80E
:103BE800FC3403F001039A4221D179687A6A1346BA
:103BF800DB0013449B000B4403F27F2301221A705D
:103C08003B6A9B6943F080023B6A9A613B6A5B6945
:103C180003F08003002B0AD1FB6903F500635B689E
:103C2800FA6902F5006243F40073536007E07B6AA7
:103C380001337B627B685B687A6A9A42B4D37B689B
:103C48001B685A697B681B6802F400125A617B681A
:103C58001B68184603F00AFC034603F08043B3F1DF
:103C6800804F0AD1786806F045F87B681B685A6966
:103C78007B681B6802F080425A617B681B681846A3
:103C880003F0F4FB034603F00403042B15D17B680F
:103C98001B685B68BB61BB6903F00403002B02D09F
:103CA800786806F035F87B681B6859687B681B687C
:103CB800BA690A435A6000E000BF3437BD4690BD78
:103CC80080B582B000AF78600B46FB707B6893F8D4
:103CD800BC34012B01D1022313E07B68012283F855
:103CE800BC247B68FA7883F838207B681B68FA78EC
:103CF8001146184603F052FB7B68002283F8BC2467
:103D0800002318460837BD4680BD80B584B000AF93
:103D18007860084611461A460346FB700B463B80FE
:103D28001346BB700023FB7297F90330002B0FDAA0
:103D3800FB7803F00F021346DB0013449B00383373
:103D48007A6813440433FB60FB6801225A700FE061
:103D5800FB7803F00F021346DB0013449B0003F5C6
:103D68001E737A6813440433FB60FB6800225A70A0
:103D7800FB7803F00F03DAB2FB681A703A88FB6825
:103D8800DA60FB68BA781A71FB685B78002B04D09C
:103D9800FB681B789AB2FB681A81BB78022B02D1A8
:103DA800FB6800225A717B6893F8BC34012B01D15F
:103DB80002230EE07B68012283F8BC247B681B6821
:103DC800F968184602F0D2FB7B68002283F8BC240D
:103DD800FB7A18461037BD4680BD80B584B000AF69
:103DE80078600B46FB7097F90330002B0FDAFB78ED
:103DF80003F00F021346DB0013449B0038337A6844
:103E080013440433FB60FB6801225A700FE0FB780F
:103E180003F00F021346DB0013449B0003F51E73E7
:103E28007A6813440433FB60FB6800225A70FB78FD
:103E380003F00F03DAB2FB681A707B6893F8BC349E
:103E4800012B01D102230EE07B68012283F8BC24F8
:103E58007B681B68F968184602F010FC7B68002232
:103E680083F8BC24002318461037BD4680BD80B5B2
:103E780086B000AFF8607A603B600B46FB72FB7A55
:103E880003F00F021346DB0013449B0003F51E7377
:103E9800FA68134404337B617B697A681A617B6929
:103EA8003A689A617B6900221A627B6900225A701B
:103EB800FB7A03F00F03DAB27B691A70FB681B699F
:103EC800012B02D17A687B695A61FB7A03F00F03F0
:103ED800002B09D1FB681868FB681B69DBB21A461E
:103EE800796902F0EFFE08E0FB681868FB681B6957
:103EF800DBB21A46796902F09DFC00231846183790
:103F0800BD4680BD80B483B000AF78600B46FB70BF
:103F1800FB7803F00F0279681346DB0013449B001B
:103F28000B4403F527731B6818460C37BD465DF82C
:103F3800047B704780B586B000AFF8607A603B605C
:103F48000B46FB72FB7A03F00F021346DB001344A7
:103F58009B003833FA68134404337B617B697A68C1
:103F68001A617B693A689A617B6900221A627B69E7
:103F780001225A70FB7A03F00F03DAB27B691A70D8
:103F8800FB681B69012B02D17A687B695A61FB7A4D
:103F980003F00F03002B09D1FB681868FB681B6945
:103FA800DBB21A46796902F08DFE08E0FB681868F2
:103FB800FB681B69DBB21A46796902F03BFC0023F7
:103FC80018461837BD4680BD80B584B000AF78600C
:103FD8000B46FB70FB7803F00F027B685B689A4224
:103FE80001D9012350E097F90330002B0FDAFB7851
:103FF80003F00F021346DB0013449B0038337A6842
:1040080013440433FB60FB6801225A700DE0FA7810
:104018001346DB0013449B0003F51E737A681344B0
:104028000433FB60FB6800225A70FB6801229A7017
:10403800FB7803F00F03DAB2FB681A707B6893F819
:10404800BC34012B01D102231EE07B68012283F8D6
:10405800BC247B681B68F968184603F0CBF8FB782A
:1040680003F00F03002B0AD17B6818687B681B6973
:10407800D9B27B6803F2C4431A4603F0BBFA7B68E3
:10408800002283F8BC24002318461037BD4680BDA3
:1040980080B584B000AF78600B46FB70FB7803F006
:1040A8000F027B685B689A4201D9012342E097F9C5
:1040B8000330002B0FDAFB7803F00F021346DB0006
:1040C80013449B0038337A6813440433FB60FB685D
:1040D80001225A700FE0FB7803F00F021346DB0051
:1040E80013449B0003F51E737A6813440433FB6082
:1040F800FB6800225A70FB6800229A70FB7803F074
:104108000F03DAB2FB681A707B6893F8BC34012B92
:1041180001D102230EE07B68012283F8BC247B686E
:104128001B68F968184603F0D3F87B68002283F807
:10413800BC24002318461037BD4680BD80B584B026
:1041480000AF78600B46FB7097F90330002B0CDA50
:10415800FB7803F00F021346DB0013449B0038334F
:104168007A6813440433FB600CE0FB7803F00F0219
:104178001346DB0013449B0003F51E737A6813444F
:104188000433FB607B681B68F968184602F0F2FE8E
:104198000346FB72FB7A18461037BD4680BD80B5D2
:1041A8008AB002AF786039607B681B687B617B6985
:1041B8003B613A681346DB0013449B0038337A6846
:1041C80013440433FB60FB681A6AFB689B699A42D4
:1041D80001D901236CE0FB689A69FB681B6AD31A52
:1041E800FB61FB68DB68FA699A4202D9FB68DB6805
:1041F800FB61FB6903339B08BB612BE0FB689A6991
:10420800FB681B6AD31AFB61FB68DB68FA699A4290
:1042180002D9FB68DB68FB61FB6903339B08BB6160
:10422800FB6819693B68DAB2FB6998B27B681B695D
:10423800DBB200930346786902F046FFFB681A690F
:10424800FB691A44FB681A61FB681A6AFB691A441D
:10425800FB681A623B685A013B69134403F5106313
:104268009B699BB2BA699A4209D8FB681A6AFB68CB
:104278009B699A4203D2FB689B69002BBED1FB68FD
:104288009A69FB681B6A9A4211D83B6803F00F03CE
:10429800012202FA03F3BB603B6903F500635A6B22
:1042A800BB68DB43396901F5006113404B630023A8
:1042B80018462037BD4680BD80B588B000AF78600D
:1042C80039607B681B68FB61FB69BB61FB693C3338
:1042D80004331B687B613B685A01BB69134403F5CF
:1042E80030639B683B617B681B69012B7BD13B6911
:1042F80003F00803002B15D07B69614A934240F212
:10430800B9803B6903F40043002B00F0B3803B689D
:104318005A01BB69134403F530631A464FF400434E
:104328009360A7E03B6903F02003002B09D03B68AA
:104338005A01BB69134403F530631A46202393607E
:1043480098E03B6903F02803002B40F093807B69D9
:104358004B4A93420FD93B6903F40043002B0AD020
:104368003B685A01BB69134403F530631A464FF49E
:10437800004393607EE03A681346DB0013449B00D9
:1043880003F51E737A6813440433FB60FB68DA692B
:104398003B685901BB690B4403F530631B69C3F3E0
:1043A8001203D21AFB681A623B68002B14D1FB680F
:1043B8009B69002B09D17B6818687B6803F2C443AA
:1043C8001A46012103F016F906E0FB681A69FB6832
:1043D8001B6A1A44FB681A613B68DBB219467868A5
:1043E80005F0CEFB46E07B69264A934224D13B691F
:1043F80003F40043002B0AD03B685A01BB691344FD
:1044080003F530631A464FF40043936032E03B698A
:1044180003F02003002B08D03B685A01BB69134402
:1044280003F530631A46202393603B68DBB21946D4
:10443800786805F0A5FB1DE03B68002B14D179686E
:104448003A681346DB0013449B000B4403F52573BD
:104458001B68002B08D17B6818687B6803F2C4438B
:104468001A46002103F0C6F83B68DBB219467868A3
:1044780005F086FB002318462037BD4680BD00BFE7
:104488000A30544F0A31544F80B586B000AF786077
:1044980039607B681B687B617B693B617B693C3366
:1044A80004331B68FB603B685A013B69134403F5FE
:1044B80030639B68BB60FB68154A93420ED9BB68A2
:1044C80003F40043002B09D03B685A013B691344AD
:1044D80003F530631A464FF400439360786805F09B
:1044E8003DFBFB680A4A93420CD97B681B69012B88
:1044F80008D17B6818687B6803F2C4431A46012117
:1045080003F078F8002318461837BD4680BD00BF71
:104518000A30544F80B485B000AF78600B46FB700A
:1045280013463B807B681B685B6ABB60FB78002B8B
:1045380007D13B8819047B681B68BA680A439A62EA
:1045480028E07B681B689B6A1B0CBA681344BB6035
:104558000023FB730DE07B681A68FB7B40339B00EC
:1045680013445B681B0CBA681344BB60FB7B0133C4
:10457800FB73FA7BFB78013B9A42ECD33B88180427
:104588007B681968FB78013BBA68024340339B009B
:104598000B445A60002318461437BD465DF8047B67
:1045A800704780B483B000AF78600B467B807B682F
:1045B8001B687A885A62002318460C37BD465DF896
:1045C800047B704780B483B000AF78600B46FB7003
:1045D80000BF0C37BD465DF8047B704780B586B0D8
:1045E80000AF78607B68002B01D1012367E27B680C
:1045F8001B6803F00103002B75D0884B9B6803F000
:104608000C03042B0CD0854B9B6803F00C03082B80
:1046180012D1824B5B6803F48003B3F5800F0BD192
:104628007E4B1B6803F40033002B5BD07B685B6810
:10463800002B57D1012342E27B685B68B3F5803FCA
:1046480006D1764B1B68754A43F4803313601DE02E
:104658007B685B68B3F5A02F0CD1704B1B686F4A61
:1046680043F4802313606D4B1B686C4A43F480331A
:1046780013600BE0694B1B68684A23F480331360AE
:10468800664B1B68654A23F4802313607B685B686C
:10469800002B13D0FEF7F0F9386108E0FEF7ECF9CB
:1046A80002463B69D31A642B01D9032307E25B4B0B
:1046B8001B6803F40033002BF0D014E0FEF7DCF99C
:1046C800386108E0FEF7D8F902463B69D31A642B33
:1046D80001D90323F3E1514B1B6803F40033002B8A
:1046E800F0D100E000BF7B681B6803F00203002BD9
:1046F80063D04A4B9B6803F00C03002B0BD0474B4D
:104708009B6803F00C03082B1CD1444B5B6803F433
:104718008003002B16D1414B1B6803F00203002BCA
:1047280005D07B68DB68012B01D00123C7E13B4B37
:104738001B6823F0F8027B681B69DB0037491343C9
:104748000B603AE07B68DB68002B20D0344B0122F9
:104758001A60FEF791F9386108E0FEF78DF9024614
:104768003B69D31A022B01D90323A8E12B4B1B6801
:1047780003F00203002BF0D0284B1B6823F0F8024B
:104788007B681B69DB00254913430B6015E0244B4C
:1047980000221A60FEF770F9386108E0FEF76CF93C
:1047A80002463B69D31A022B01D9032387E11B4B2D
:1047B8001B6803F00203002BF0D17B681B6803F031
:1047C8000803002B36D07B685B69002B16D0154B8D
:1047D80001221A60FEF750F9386108E0FEF74CF93B
:1047E80002463B69D31A022B01D9032367E10B4B1D
:1047F8005B6F03F00203002BF0D01BE0094B002293
:104808001A60FEF739F938610EE0FEF735F902460D
:104818003B69D31A022B07D9032350E10038024021
:1048280000004742800E4742884B5B6F03F002034B
:10483800002BEAD17B681B6803F00403002B00F00F
:1048480097800023FB75814B1B6C03F08053002B72
:104858000FD10023BB607D4B1B6C7C4A43F0805317
:1048680013647A4B1B6C03F08053BB60BB68012355
:10487800FB75774B1B6803F48073002B18D1744BBE
:104888001B68734A43F480731360FEF7F5F83861C8
:1048980008E0FEF7F1F802463B69D31A022B01D96A
:1048A80003230CE16A4B1B6803F48073002BF0D0E0
:1048B8007B689B68012B06D1644B1B6F634A43F0EE
:1048C800010313671CE07B689B68052B0CD15F4BC9
:1048D8001B6F5E4A43F0040313675C4B1B6F5B4A14
:1048E80043F0010313670BE0584B1B6F574A23F043
:1048F80001031367554B1B6F544A23F004031367D6
:104908007B689B68002B15D0FEF7B6F838610AE083
:10491800FEF7B2F802463B69D31A41F28832934255
:1049280001D90323CBE0494B1B6F03F00203002B93
:10493800EED014E0FEF7A0F838610AE0FEF79CF824
:1049480002463B69D31A41F28832934201D90323C4
:10495800B5E03E4B1B6F03F00203002BEED1FB7D4D
:10496800012B05D1394B1B6C384A23F08053136453
:104978007B689B69002B00F0A180344B9B6803F097
:104988000C03082B5CD07B689B69022B41D1314B0F
:1049980000221A60FEF770F8386108E0FEF76CF83C
:1049A80002463B69D31A022B01D9032387E0274B20
:1049B8001B6803F00073002BF0D17B68DA697B6811
:1049C8001B6A1A437B685B6A9B011A437B689B6A74
:1049D8005B08013B1B041A437B68DB6A1B061B4907
:1049E80013434B601B4B01221A60FEF745F83861F0
:1049F80008E0FEF741F802463B69D31A022B01D9B9
:104A080003235CE0114B1B6803F00073002BF0D00C
:104A180054E0104B00221A60FEF72EF8386108E0C7
:104A2800FEF72AF802463B69D31A022B01D9032361
:104A380045E0064B1B6803F00073002BF0D13DE006
:104A48007B689B69012B07D1012338E000380240BD
:104A580000700040600047421B4B5B68FB607B684E
:104A68009B69012B28D0FB6803F480027B68DB6913
:104A78009A4221D1FB6803F03F027B681B6A9A4285
:104A88001AD1FA6847F6C07313407A68526A9201DD
:104A9800934211D1FB6803F440327B689B6A5B0840
:104AA800013B1B049A4207D1FB6803F070627B68E4
:104AB800DB6A1B069A4201D0012300E00023184656
:104AC8001837BD4680BD00BF0038024080B584B0AD
:104AD80000AF786039607B68002B01D10123CCE0FE
:104AE800684B1B6803F007033A689A420CD9654B78
:104AF8003A68D2B21A70634B1B6803F007033A682E
:104B08009A4201D00123B8E07B681B6803F00203D6
:104B1800002B20D07B681B6803F00403002B05D012
:104B2800594B9B68584A43F4E05393607B681B6871
:104B380003F00803002B05D0534B9B68524A43F4FB
:104B480060439360504B9B6823F0F0027B689B683E
:104B58004D4913438B607B681B6803F00103002BEE
:104B680044D07B685B68012B07D1474B1B6803F473
:104B78000033002B19D101237FE07B685B68022B8F
:104B880003D07B685B68032B07D13F4B1B6803F09E
:104B98000073002B09D101236FE03B4B1B6803F026
:104BA8000203002B01D1012367E0374B9B6823F0F8
:104BB80003027B685B68344913438B60FDF75CFF35
:104BC800F8600AE0FDF758FF0246FB68D31A41F285
:104BD8008832934201D903234FE02B4B9B6803F0A3
:104BE8000C027B685B689B009A42EBD1254B1B68E3
:104BF80003F007033A689A420CD2224B3A68D2B2C1
:104C08001A70204B1B6803F007033A689A4201D0D8
:104C1800012332E07B681B6803F00403002B08D0F3
:104C2800194B9B6823F4E0527B68DB6816491343F1
:104C38008B607B681B6803F00803002B09D0124BBC
:104C48009B6823F460427B681B69DB000E491343B1
:104C58008B6000F021F802460B4B9B681B0903F0A0
:104C68000F030A49CB5C22FA03F3094A1360094B84
:104C78001B681846FDF7BCFE002318461037BD46D2
:104C880080BD00BF003C02400038024018BD00084B
:104C98003C000020400000202DE9B04F90B000AF4C
:104CA80000237B630023FB6300233B630023BB6378
:104CB800594B9B6803F00C03082B0DD0082B00F20E
:104CC800A180002B02D0042B03D09BE0534BBB6385
:104CD8009BE0534BBB6398E04F4B5B6803F03F038B
:104CE8007B634D4B5B6803F48003002B28D04A4B51
:104CF8005B689B0900223B627A623B6AC3F3080047
:104D08000021474B03FB01F2002300FB03F313448C
:104D1800434AA0FB0212FA620A46BA62FA6A1344CC
:104D2800FB627B6B0022BB61FA61D7E90623D7E9F6
:104D38000A01FBF73BFF02460B461346FB6353E0B1
:104D4800354B5B689B0900223B617A613B69C3F381
:104D5800080A4FF0000B52465B464FF000004FF038
:104D68000001590141EAD261500102460B46B2EBFB
:104D78000A0863EB0B094FF000024FF000034FEAFB
:104D8800891343EA98634FEA8812B2EB080463EB8D
:104D980009054FF000024FF00003EB0043EA54739B
:104DA800E20014461D4614EB0A033B6045EB0B0377
:104DB8007B604FF000024FF00003D7E90045294619
:104DC8008B02214643EA915321468A02104619462E
:104DD8007B6B0022BB60FA60D7E90223FBF7E6FE93
:104DE80002460B461346FB630B4B5B681B0C03F038
:104DF800030301335B003B63FA6B3B6BB2FBF3F3DA
:104E0800BB6302E0054BBB6300BFBB6B1846403772
:104E1800BD46BDE8B08F00BF003802400024F40052
:104E280040787D0180B400AF034B1B681846BD462F
:104E38005DF8047B704700BF3C00002080B582B05D
:104E480000AF78607B68002B01D1012341E07B68CB
:104E580093F83D30DBB2002B06D17B68002283F843
:104E68003C207868FCF7C4FD7B68022283F83D206B
:104E78007B681A687B6804331946104600F05EFCAC
:104E88007B68012283F846207B68012283F83E2054
:104E98007B68012283F83F207B68012283F8402049
:104EA8007B68012283F841207B68012283F8422035
:104EB8007B68012283F843207B68012283F8442021
:104EC8007B68012283F845207B68012283F83D2016
:104ED800002318460837BD4680BD000080B485B061
:104EE80000AF78607B6893F83D30DBB2012B01D0CE
:104EF800012344E07B68022283F83D207B681B681D
:104F0800DA687B681B6842F00102DA607B681B681C
:104F18001E4A934218D07B681B68B3F1804F13D0A8
:104F28007B681B681A4A93420ED07B681B68194A33
:104F3800934209D07B681B68174A934204D07B6868
:104F48001B68164A934211D17B681B689B6803F063
:104F58000703FB60FB68062B10D07B681B681A6888
:104F68007B681B6842F001021A6007E07B681B68D7
:104F78001A687B681B6842F001021A600023184611
:104F88001437BD465DF8047B704700BF0000014040
:104F98000004004000080040000C004000400140B0
:104FA80080B582B000AF78607B68002B01D1012307
:104FB80041E07B6893F83D30DBB2002B06D17B687B
:104FC800002283F83C20786800F039F87B680222D8
:104FD80083F83D207B681A687B68043319461046BD
:104FE80000F0ACFB7B68012283F846207B68012235
:104FF80083F83E207B68012283F83F207B680122EA
:1050080083F840207B68012283F841207B680122D5
:1050180083F842207B68012283F843207B680122C1
:1050280083F844207B68012283F845207B680122AD
:1050380083F83D20002318460837BD4680BD80B45C
:1050480083B000AF786000BF0C37BD465DF8047BC5
:105058007047000080B584B000AF786039603B6865
:10506800002B09D17B6893F83E30DBB2012B14BFCB
:1050780001230023DBB222E03B68042B09D17B68C3
:1050880093F83F30DBB2012B14BF01230023DBB2BE
:1050980015E03B68082B09D17B6893F84030DBB2F8
:1050A800012B14BF01230023DBB208E07B6893F8CF
:1050B8004130DBB2012B14BF01230023DBB2002BEC
:1050C80001D0012368E03B68002B04D17B680222F1
:1050D80083F83E2013E03B68042B04D17B6802224E
:1050E80083F83F200BE03B68082B04D17B68022241
:1050F80083F8402003E07B68022283F841207B6824
:105108001B6801223968184600F0BEFD7B681B68E1
:10511800234A934207D17B681B685A6C7B681B68DB
:1051280042F400425A647B681B681D4A934218D0B7
:105138007B681B68B3F1804F13D07B681B68194AE2
:1051480093420ED07B681B68174A934209D07B684C
:105158001B68164A934204D07B681B68144A934222
:1051680011D17B681B689B6803F00703FB60FB6831
:10517800062B10D07B681B681A687B681B6842F096
:1051880001021A6007E07B681B681A687B681B6865
:1051980042F001021A60002318461037BD4680BD50
:1051A800000001400004004000080040000C0040DE
:1051B8000040014080B582B000AF78607B681B6812
:1051C8001B6903F00203022B22D17B681B68DB6892
:1051D80003F00203022B1BD17B681B686FF00202ED
:1051E8001A617B6801221A777B681B689B6903F048
:1051F8000303002B03D0786800F081FA05E0786893
:1052080000F073FA786800F084FA7B6800221A7755
:105218007B681B681B6903F00403042B22D17B689D
:105228001B68DB6803F00403042B1BD17B681B6835
:105238006FF004021A617B6802221A777B681B6888
:105248009B6903F44073002B03D0786800F057FA89
:1052580005E0786800F049FA786800F05AFA7B6847
:1052680000221A777B681B681B6903F00803082B68
:1052780022D17B681B68DB6803F00803082B1BD16D
:105288007B681B686FF008021A617B6804221A7732
:105298007B681B68DB6903F00303002B03D0786885
:1052A80000F02DFA05E0786800F01FFA786800F041
:1052B80030FA7B6800221A777B681B681B6903F049
:1052C8001003102B22D17B681B68DB6803F01003E6
:1052D800102B1BD17B681B686FF010021A617B686A
:1052E80008221A777B681B68DB6903F44073002B7C
:1052F80003D0786800F003FA05E0786800F0F5F963
:10530800786800F006FA7B6800221A777B681B68C9
:105318001B6903F00103012B0ED17B681B68DB6856
:1053280003F00103012B07D17B681B686FF00102B2
:105338001A61786800F0CFF97B681B681B6903F075
:105348008003802B0ED17B681B68DB6803F0800329
:10535800802B07D17B681B686FF080021A61786820
:1053680000F082FD7B681B681B6903F04003402B3B
:105378000ED17B681B68DB6803F04003402B07D124
:105388007B681B686FF040021A61786800F0CBF9FF
:105398007B681B681B6903F02003202B0ED17B68F8
:1053A8001B68DB6803F02003202B07D17B681B6890
:1053B8006FF020021A61786800F04CFD00BF0837D2
:1053C800BD4680BD80B586B000AFF860B9607A6030
:1053D8000023FB75FB6893F83C30012B01D10223B5
:1053E800AEE0FB68012283F83C207B680C2B00F2BE
:1053F8009F8001A252F823F035540008395500085F
:105408003955000839550008755400083955000801
:105418003955000839550008B754000839550008AF
:105428003955000839550008F7540008FB681B680F
:10543800B968184600F002FAFB681B689A69FB68AD
:105448001B6842F008029A61FB681B689A69FB684E
:105458001B6822F004029A61FB681B689969BB68A3
:105468001A69FB681B680A439A6164E0FB681B6859
:10547800B968184600F048FAFB681B689A69FB6827
:105488001B6842F400629A61FB681B689A69FB68B2
:105498001B6822F480629A61FB681B689969BB6883
:1054A8001B691A02FB681B680A439A6143E0FB68A0
:1054B8001B68B968184600F093FAFB681B68DA693C
:1054C800FB681B6842F00802DA61FB681B68DA694E
:1054D800FB681B6822F00402DA61FB681B68D96963
:1054E800BB681A69FB681B680A43DA6123E0FB683A
:1054F8001B68B968184600F0DDFAFB681B68DA69B2
:10550800FB681B6842F40062DA61FB681B68DA69B1
:10551800FB681B6822F48062DA61FB681B68D96942
:10552800BB681B691A02FB681B680A43DA6102E060
:105538000123FB7500BFFB68002283F83C20FB7D3C
:1055480018461837BD4680BD80B584B000AF786076
:1055580039600023FB737B6893F83C30012B01D141
:105568000223B4E07B68012283F83C207B68022296
:1055780083F83D207B681B689B68BB60BB6823F091
:105588007703BB60BB6823F47F43BB607B681B6801
:10559800BA689A603B681B68B3F5005F3ED0B3F504
:1055A800005F00F28780B3F5805F00F08680B3F576
:1055B800805F7FD8702B1AD0702B7BD8602B50D08F
:1055C800602B77D8502B3CD0502B73D8402B58D019
:1055D800402B6FD8302B64D0302B6BD8202B60D069
:1055E800202B67D8002B5CD0102B5AD062E07B6848
:1055F80018683B6899683B685A683B68DB6800F044
:1056080023FB7B681B689B68BB60BB6843F0770320
:10561800BB607B681B68BA689A604FE07B68186853
:105628003B6899683B685A683B68DB6800F00CFB8C
:105638007B681B689A687B681B6842F480429A60A2
:105648003CE07B6818683B6859683B68DB681A4629
:1056580000F080FA7B681B685021184600F0D9FAE0
:105668002CE07B6818683B6859683B68DB681A4619
:1056780000F09FFA7B681B686021184600F0C9FAA1
:105688001CE07B6818683B6859683B68DB681A4609
:1056980000F060FA7B681B684021184600F0B9FAF0
:1056A8000CE07B681A683B681B681946104600F0D6
:1056B800B0FA03E00123FB7300E000BF7B6801221E
:1056C80083F83D207B68002283F83C20FB7B18464A
:1056D8001037BD4680BD80B483B000AF786000BF8E
:1056E8000C37BD465DF8047B704780B483B000AFCB
:1056F800786000BF0C37BD465DF8047B704780B406
:1057080083B000AF786000BF0C37BD465DF8047BFE
:10571800704780B483B000AF786000BF0C37BD46D7
:105728005DF8047B704780B483B000AF786000BF39
:105738000C37BD465DF8047B7047000080B485B027
:1057480000AF786039607B681B68FB607B68344A0F
:1057580093420FD07B68B3F1804F0BD07B68314AFE
:10576800934207D07B68304A934203D07B682F4A24
:10577800934208D1FB6823F07003FB603B685B68C9
:10578800FA681343FB607B68254A93421BD07B6809
:10579800B3F1804F17D07B68224A934213D07B68BD
:1057A800214A93420FD07B68204A93420BD07B68F2
:1057B8001F4A934207D07B681E4A934203D07B68F6
:1057C8001D4A934208D1FB6823F44073FB603B6891
:1057D800DB68FA681343FB60FB6823F080023B68D0
:1057E8005B691343FB607B68FA681A603B689A68D8
:1057F8007B68DA623B681A687B689A627B68084A49
:10580800934203D13B681A697B681A637B6801225B
:105818005A6100BF1437BD465DF8047B704700BF6E
:10582800000001400004004000080040000C004057
:1058380000400140004401400048014080B487B066
:1058480000AF786039607B681B6A23F001027B68CF
:105858001A627B681B6A7B617B685B683B617B685B
:105868009B69FB60FB6823F07003FB60FB6823F017
:105878000303FB603B681B68FA681343FB607B69A2
:1058880023F002037B613B689B687A6913437B6161
:105898007B681C4A93420CD17B6923F008037B6127
:1058A8003B68DB687A6913437B617B6923F00403F7
:1058B8007B617B68134A934211D13B6923F480735F
:1058C8003B613B6923F400733B613B685B693A6960
:1058D80013433B613B689B693A6913433B617B68AF
:1058E8003A695A607B68FA689A613B685A687B68CB
:1058F8005A637B687A691A6200BF1C37BD465DF837
:10590800047B70470000014080B487B000AF786026
:1059180039607B681B6A23F010027B681A627B6817
:105928001B6A7B617B685B683B617B689B69FB608A
:10593800FB6823F4E043FB60FB6823F44073FB60DF
:105948003B681B681B02FA681343FB607B6923F002
:1059580020037B613B689B681B017A6913437B6169
:105968007B681E4A93420DD17B6923F080037B61DB
:105978003B68DB681B017A6913437B617B6923F011
:1059880040037B617B68154A934213D13B6923F43A
:1059980080633B613B6923F400633B613B685B695F
:1059A8009B003A6913433B613B689B699B003A69DA
:1059B80013433B617B683A695A607B68FA689A616D
:1059C8003B685A687B689A637B687A691A6200BF89
:1059D8001C37BD465DF8047B704700BF00000140DE
:1059E80080B487B000AF786039607B681B6A23F4A5
:1059F80080727B681A627B681B6A7B617B685B6864
:105A08003B617B68DB69FB60FB6823F07003FB602C
:105A1800FB6823F00303FB603B681B68FA681343C9
:105A2800FB607B6923F400737B613B689B681B0206
:105A38007A6913437B617B681D4A93420DD17B6968
:105A480023F400637B613B68DB681B027A691343BC
:105A58007B617B6923F480637B617B68144A934292
:105A680013D13B6923F480533B613B6923F4005312
:105A78003B613B685B691B013A6913433B613B68C7
:105A88009B691B013A6913433B617B683A695A6019
:105A98007B68FA68DA613B685A687B68DA637B6816
:105AA8007A691A6200BF1C37BD465DF8047B7047EF
:105AB8000000014080B487B000AF786039607B682F
:105AC8001B6A23F480527B681A627B681B6A3B61FD
